{
  "contractName": "alt_bn128",
  "abi": [
    {
      "constant": true,
      "inputs": [
        {
          "name": "x",
          "type": "uint256"
        }
      ],
      "name": "evaluateCurve",
      "outputs": [
        {
          "name": "y",
          "type": "uint256"
        },
        {
          "name": "onCurve",
          "type": "bool"
        }
      ],
      "payable": false,
      "stateMutability": "view",
      "type": "function"
    }
  ],
  "bytecode": "0x610186610030600b82828239805160001a6073146000811461002057610022565bfe5b5030600052607381538281f30073000000000000000000000000000000000000000030146080604052600436106100575763ffffffff7c0100000000000000000000000000000000000000000000000000000000600035041663c6a5f5fb811461005c575b600080fd5b610067600435610080565b6040805192835290151560208301528051918290030190f35b6000807f30644e72e131a029b85045b68181585d97816a916871ca8d3c208c16d87cfd477f0c19139cb84c680a6e14116da060561765e05aa45a1c72a34f082305b61f3f52828080848889099250848015156100d857fe5b8884099250848015156100e757fe5b60038408925084915083905060405160208152602080820152602060408201528360608201528160808201528260a082015260208160c083600060056107d05a03f18080156101355761013a565b60c083fd5b50505196508480151561014957fe5b8788098314955050505050509150915600a165627a7a72305820e2426b0d5404c400b6e02d07ab2f5db754bc1ffb77a6197b7f6b89bd626e60890029",
  "source": "pragma solidity ^0.4.24;\r\n\r\nlibrary alt_bn128 {\r\n\r\n    // uint256 public constant q = 21888242871839275222246405745257275088548364400416034343698204186575808495617; // curve order\r\n    // uint256 public constant n = 21888242871839275222246405745257275088696311157297823662689037894645226208583; // prime field order\r\n    // uint256 public constant b = 3;\r\n\r\n    // uint256 constant public ECSignMask = 0x8000000000000000000000000000000000000000000000000000000000000000;\r\n    // uint256 constant public BigModExponent = (n + 1)/4;\r\n\r\n    struct G1Point {\r\n        uint256 X;\r\n        uint256 Y;\r\n    }\r\n\r\n    function add(G1Point p1, G1Point p2) internal view returns (G1Point r) {\r\n        uint256[4] memory input;\r\n        input[0] = p1.X;\r\n        input[1] = p1.Y;\r\n        input[2] = p2.X;\r\n        input[3] = p2.Y;\r\n        assembly {\r\n            if iszero(staticcall(not(0), 6, input, 0x80, r, 0x40)) {\r\n                revert(0, 0)\r\n            }\r\n        }\r\n    }\r\n\r\n    function mul(G1Point p, uint256 s) internal view returns (G1Point r) {\r\n        if (s == 1) {\r\n            return p;\r\n        }\r\n        if (s == 2) {\r\n            return add(p, p);\r\n        }\r\n        uint256[3] memory input;\r\n        input[0] = p.X;\r\n        input[1] = p.Y;\r\n        input[2] = s;\r\n        assembly {\r\n            if iszero(staticcall(not(0), 7, input, 0x60, r, 0x40)) {\r\n                revert(0, 0)\r\n            }\r\n        }\r\n    }\r\n\r\n    function neg(G1Point p) internal pure returns (G1Point) {\r\n        if (p.X == 0 && p.Y == 0)\r\n            return G1Point(0, 0);\r\n        uint256 n = 21888242871839275222246405745257275088696311157297823662689037894645226208583;\r\n        return G1Point(p.X, n - p.Y);\r\n    }\r\n\r\n    function compress(G1Point p) internal pure returns (uint256 out) {\r\n        uint256 ECSignMask = 0x8000000000000000000000000000000000000000000000000000000000000000;\r\n        //Store x value\r\n    \tout = p.X;\r\n   \t \r\n    \t//Determine Sign\r\n    \tif ((p.Y & 0x1) == 0x1) {\r\n        \tout |= ECSignMask;\r\n    \t}\r\n    }\r\n\r\n    function evaluateCurve(uint256 x) public view returns (uint256 y, bool onCurve) {\r\n        uint256 PCurve = 0x30644e72e131a029b85045b68181585d97816a916871ca8d3c208c16d87cfd47;\r\n        uint256 a = 0xc19139cb84c680a6e14116da060561765e05aa45a1c72a34f082305b61f3f52; // (p + 1) / 4\r\n\r\n    \tuint256 y_squared = mulmod(x, x, PCurve);\r\n    \ty_squared = mulmod(y_squared, x, PCurve);\r\n    \ty_squared = addmod(y_squared, 3, PCurve);\r\n   \t \r\n    \tuint256 p_local = PCurve;\r\n    \tuint256 a_local = a;\r\n   \t \r\n    \tassembly {\r\n        \t//Get Free Memory Pointer\r\n        \tlet p := mload(0x40)\r\n       \t \r\n        \t//Store Data for Big Int Mod Exp Call\r\n        \tmstore(p, 0x20)             \t//Length of Base\r\n        \tmstore(add(p, 0x20), 0x20)  \t//Length of Exponent\r\n        \tmstore(add(p, 0x40), 0x20)  \t//Length of Modulus\r\n        \tmstore(add(p, 0x60), y_squared) //Base\r\n        \tmstore(add(p, 0x80), a_local)   //Exponent\r\n        \tmstore(add(p, 0xA0), p_local)   //Modulus\r\n       \t \r\n        \t//Call Big Int Mod Exp\r\n        \tlet success := call(sub(gas, 2000), 0x05, 0, p, 0xC0, p, 0x20)\r\n       \t \r\n        \t// Use \"invalid\" to make gas estimation work\r\n         \tswitch success case 0 { revert(p, 0xC0) }\r\n        \t \r\n         \t//Store Return Data\r\n         \ty := mload(p)\r\n    \t}\r\n   \t \r\n    \t//Check Answer\r\n    \tonCurve = (y_squared == mulmod(y, y, PCurve));\r\n\t}\r\n\r\n    function decompress(uint256 p) internal view returns (G1Point pOut) {\r\n        uint256 ECSignMask = 0x8000000000000000000000000000000000000000000000000000000000000000;\r\n        uint256 PCurve = 0x30644e72e131a029b85045b68181585d97816a916871ca8d3c208c16d87cfd47;\r\n        uint256[2] memory tmp;\r\n\r\n        //Get x value (mask out sign bit)\r\n    \ttmp[0] = p & (~ECSignMask);\r\n   \t \r\n    \t//Get y value\r\n    \tbool onCurve;\r\n    \tuint256 y;\r\n    \t(y, onCurve) = evaluateCurve(tmp[0]);\r\n   \t \r\n    \t//TODO: Find better failure case for point not on curve\r\n    \tif (!onCurve) {\r\n    \t    return G1Point(uint256(0), 0);\r\n    \t}\r\n    \telse {\r\n        \t//Use Positive Y\r\n        \tif ((p & ECSignMask) != 0) {\r\n            \tif ((y & 0x1) == 0x1) {\r\n                \ttmp[1] = y;\r\n            \t} else {\r\n                \ttmp[1] = PCurve - y;\r\n            \t}\r\n        \t}\r\n        \t//Use Negative Y\r\n        \telse {\r\n            \tif ((y & 0x1) == 0x1) {\r\n                \ttmp[1] = PCurve - y;\r\n            \t} else {\r\n                \ttmp[1] = y;\r\n            \t}\r\n        \t}\r\n    \t}\r\n\r\n        return G1Point(tmp[0], tmp[1]);\r\n    }\r\n\r\n    function eq(G1Point p1, G1Point p2) internal pure returns (bool) {\r\n        return p1.X == p2.X && p1.Y == p2.Y;\r\n    }\r\n\r\n    function add(uint256 x, uint256 y) internal pure returns (uint256) {\r\n        uint256 q = 21888242871839275222246405745257275088548364400416034343698204186575808495617;\r\n        return addmod(x, y, q);\r\n    }\r\n\r\n    function mul(uint256 x, uint256 y) internal pure returns (uint256) {\r\n        uint256 q = 21888242871839275222246405745257275088548364400416034343698204186575808495617;\r\n        return mulmod(x, y, q);\r\n    }\r\n\r\n    function inv(uint256 x) internal pure returns (uint) {\r\n        uint256 p = 21888242871839275222246405745257275088548364400416034343698204186575808495617;\r\n        uint256 a = x;\r\n        if (a == 0)\r\n            return 0;\r\n        if (a > p)\r\n            a = a % p;\r\n        int t1;\r\n        int t2 = 1;\r\n        uint r1 = p;\r\n        uint r2 = a;\r\n        uint q;\r\n        while (r2 != 0) {\r\n            q = r1 / r2;\r\n            (t1, t2, r1, r2) = (t2, t1 - int(q) * t2, r2, r1 - q * r2);\r\n        }\r\n        if (t1 < 0)\r\n            return (p - uint(-t1));\r\n        return uint(t1);\r\n    }\r\n\r\n    function mod(uint256 x) internal pure returns (uint256) {\r\n        uint256 q = 21888242871839275222246405745257275088548364400416034343698204186575808495617;\r\n        return x % q;\r\n    }\r\n\r\n    function sub(uint256 x, uint256 y) internal pure returns (uint256) {\r\n        uint256 q = 21888242871839275222246405745257275088548364400416034343698204186575808495617;\r\n        return x >= y ? x - y : q - y + x;\r\n    }\r\n\r\n    function neg(uint256 x) internal pure returns (uint256) {\r\n        return 21888242871839275222246405745257275088548364400416034343698204186575808495617 - x;\r\n    }\r\n\r\n    function modExp(uint256 base, uint256 exponent, uint256 modulus) internal view returns (uint256) {\r\n        uint256[6] memory input;\r\n        uint256[1] memory output;\r\n        input[0] = 0x20;  // length_of_BASE\r\n        input[1] = 0x20;  // length_of_EXPONENT\r\n        input[2] = 0x20;  // length_of_MODULUS\r\n        input[3] = base;\r\n        input[4] = exponent;\r\n        input[5] = modulus;\r\n        assembly {\r\n            if iszero(staticcall(not(0), 5, input, 0xc0, output, 0x20)) {\r\n                revert(0, 0)\r\n            }\r\n        }\r\n        return output[0];\r\n    }\r\n\r\n    function modExp(uint256 base, uint256 exponent) internal view returns (uint256) {\r\n        uint256 q = 21888242871839275222246405745257275088548364400416034343698204186575808495617;\r\n        return modExp(base, exponent, q);\r\n    }\r\n\r\n    function hashToCurve(bytes input) internal view returns (G1Point p) {\r\n        uint256 seed = uint256(keccak256(input));\r\n        return uintToCurvePoint(seed);\r\n    }\r\n\r\n    function uintToCurvePoint(uint256 x) internal view returns(G1Point p) {\r\n        uint256 n = 21888242871839275222246405745257275088696311157297823662689037894645226208583;\r\n        uint256 seed = x % n;\r\n        uint256 y;\r\n        seed -= 1;\r\n        bool onCurve = false;\r\n        uint256 y2;\r\n        uint256 b = uint256(3);\r\n        while(!onCurve) {\r\n            seed += 1;\r\n            y2 = mulmod(seed, seed, n);\r\n            y2 = mulmod(y2, seed, n);\r\n            y2 = addmod(y2, b, n);\r\n            y = modExp(y2, (n + 1) / 4, n);\r\n            onCurve = mulmod(y, y, n) == y2;\r\n        }\r\n        return G1Point(seed, y);\r\n    }\r\n}\r\n",
  "sourcePath": "C:\\Users\\dva\\Documents\\Development\\ELCA\\confidential-transactions-smart-contracts\\contracts\\alt_bn128.sol",
  "compiler": {
    "name": "solc",
    "version": "0.4.24+commit.e67f0147.Emscripten.clang"
  },
  "schemaVersion": "2.0.1",
  "updatedAt": "2018-07-16T15:49:46.292Z"
}