{
  "contractName": "Authentication",
  "abi": [
    {
      "constant": false,
      "inputs": [],
      "name": "renounceOwnership",
      "outputs": [],
      "payable": false,
      "stateMutability": "nonpayable",
      "type": "function"
    },
    {
      "constant": false,
      "inputs": [],
      "name": "destroy",
      "outputs": [],
      "payable": false,
      "stateMutability": "nonpayable",
      "type": "function"
    },
    {
      "constant": true,
      "inputs": [],
      "name": "owner",
      "outputs": [
        {
          "name": "",
          "type": "address"
        }
      ],
      "payable": false,
      "stateMutability": "view",
      "type": "function"
    },
    {
      "constant": false,
      "inputs": [
        {
          "name": "_newOwner",
          "type": "address"
        }
      ],
      "name": "transferOwnership",
      "outputs": [],
      "payable": false,
      "stateMutability": "nonpayable",
      "type": "function"
    },
    {
      "constant": false,
      "inputs": [
        {
          "name": "_recipient",
          "type": "address"
        }
      ],
      "name": "destroyAndSend",
      "outputs": [],
      "payable": false,
      "stateMutability": "nonpayable",
      "type": "function"
    },
    {
      "anonymous": false,
      "inputs": [
        {
          "indexed": true,
          "name": "previousOwner",
          "type": "address"
        }
      ],
      "name": "OwnershipRenounced",
      "type": "event"
    },
    {
      "anonymous": false,
      "inputs": [
        {
          "indexed": true,
          "name": "previousOwner",
          "type": "address"
        },
        {
          "indexed": true,
          "name": "newOwner",
          "type": "address"
        }
      ],
      "name": "OwnershipTransferred",
      "type": "event"
    },
    {
      "constant": true,
      "inputs": [],
      "name": "login",
      "outputs": [
        {
          "name": "",
          "type": "bytes32"
        }
      ],
      "payable": false,
      "stateMutability": "view",
      "type": "function"
    },
    {
      "constant": false,
      "inputs": [
        {
          "name": "name",
          "type": "bytes32"
        }
      ],
      "name": "signup",
      "outputs": [
        {
          "name": "",
          "type": "bytes32"
        }
      ],
      "payable": true,
      "stateMutability": "payable",
      "type": "function"
    },
    {
      "constant": false,
      "inputs": [
        {
          "name": "name",
          "type": "bytes32"
        }
      ],
      "name": "update",
      "outputs": [
        {
          "name": "",
          "type": "bytes32"
        }
      ],
      "payable": true,
      "stateMutability": "payable",
      "type": "function"
    }
  ],
  "bytecode": "0x608060405260008054600160a060020a031916331790556103dd806100256000396000f30060806040526004361061008d5763ffffffff7c01000000000000000000000000000000000000000000000000000000006000350416635c1397de8114610092578063715018a6146100af57806383197ef0146100c65780638b147245146100db5780638da5cb5b146100e6578063b34e97e814610117578063f2fde38b1461012c578063f5074f411461014d575b600080fd5b61009d60043561016e565b60408051918252519081900360200190f35b3480156100bb57600080fd5b506100c46101c6565b005b3480156100d257600080fd5b506100c4610232565b61009d600435610257565b3480156100f257600080fd5b506100fb6102b0565b60408051600160a060020a039092168252519081900360200190f35b34801561012357600080fd5b5061009d6102bf565b34801561013857600080fd5b506100c4600160a060020a03600435166102ee565b34801561015957600080fd5b506100c4600160a060020a0360043516610311565b60008180151561017d57600080fd5b3360009081526001602052604090205415156101ad573360009081526001602052604090208390558291506101c0565b3360009081526001602052604090205491505b50919050565b600054600160a060020a031633146101dd57600080fd5b60008054604051600160a060020a03909116917ff8df31144d9c2f0f6b59d69b8b98abd5459d07f2742c4df920b25aae33c6482091a26000805473ffffffffffffffffffffffffffffffffffffffff19169055565b600054600160a060020a0316331461024957600080fd5b600054600160a060020a0316ff5b60008180151561026657600080fd5b33600090815260016020526040902054151561028157600080fd5b33600090815260016020526040902054156101c0573360009081526001602052604090208390558291506101c0565b600054600160a060020a031681565b3360009081526001602052604081205415156102da57600080fd5b503360009081526001602052604090205490565b600054600160a060020a0316331461030557600080fd5b61030e81610334565b50565b600054600160a060020a0316331461032857600080fd5b80600160a060020a0316ff5b600160a060020a038116151561034957600080fd5b60008054604051600160a060020a03808516939216917f8be0079c531659141344cd1fd0a4f28419497f9722a3daafe3b4186f6b6457e091a36000805473ffffffffffffffffffffffffffffffffffffffff1916600160a060020a03929092169190911790555600a165627a7a723058205c8b5cc8f29e77b005fb9341fbf46f99f223146c6bca727208f87970f4f7d7300029",
  "source": "pragma solidity ^0.4.23;\r\n\r\nimport \"openzeppelin-solidity/contracts/lifecycle/Destructible.sol\";\r\n\r\ncontract Authentication is Destructible {\r\n  struct User {\r\n    bytes32 name;\r\n  }\r\n\r\n  mapping (address => User) private users;\r\n\r\n  uint private id; // Stores user id temporarily\r\n\r\n  modifier onlyExistingUser {\r\n    // Check if user exists or terminate\r\n\r\n    require(!(users[msg.sender].name == 0x0));\r\n    _;\r\n  }\r\n\r\n  modifier onlyValidName(bytes32 name) {\r\n    // Only valid names allowed\r\n\r\n    require(!(name == 0x0));\r\n    _;\r\n  }\r\n\r\n  function login() view\r\n  public\r\n  onlyExistingUser\r\n  returns (bytes32) {\r\n    return (users[msg.sender].name);\r\n  }\r\n\r\n  function signup(bytes32 name)\r\n  public\r\n  payable\r\n  onlyValidName(name)\r\n  returns (bytes32) {\r\n    // Check if user exists.\r\n    // If yes, return user name.\r\n    // If no, check if name was sent.\r\n    // If yes, create and return user.\r\n\r\n    if (users[msg.sender].name == 0x0)\r\n    {\r\n        users[msg.sender].name = name;\r\n\r\n        return (users[msg.sender].name);\r\n    }\r\n\r\n    return (users[msg.sender].name);\r\n  }\r\n\r\n  function update(bytes32 name)\r\n  public\r\n  payable\r\n  onlyValidName(name)\r\n  onlyExistingUser\r\n  returns (bytes32) {\r\n    // Update user name.\r\n\r\n    if (users[msg.sender].name != 0x0)\r\n    {\r\n        users[msg.sender].name = name;\r\n\r\n        return (users[msg.sender].name);\r\n    }\r\n  }\r\n}\r\n",
  "sourcePath": "C:\\Users\\dva\\Documents\\Development\\ELCA\\confidential-transactions-smart-contracts\\contracts\\Authentication.sol",
  "compiler": {
    "name": "solc",
    "version": "0.4.24+commit.e67f0147.Emscripten.clang"
  },
  "schemaVersion": "2.0.1",
  "updatedAt": "2018-07-16T15:49:07.551Z"
}