{
  "contractName": "BulletproofVerifier",
  "abi": [
    {
      "constant": true,
      "inputs": [],
      "name": "ipVerifier",
      "outputs": [
        {
          "name": "",
          "type": "address"
        }
      ],
      "payable": false,
      "stateMutability": "view",
      "type": "function"
    },
    {
      "constant": true,
      "inputs": [],
      "name": "n",
      "outputs": [
        {
          "name": "",
          "type": "uint256"
        }
      ],
      "payable": false,
      "stateMutability": "view",
      "type": "function"
    },
    {
      "constant": true,
      "inputs": [],
      "name": "publicParameters",
      "outputs": [
        {
          "name": "",
          "type": "address"
        }
      ],
      "payable": false,
      "stateMutability": "view",
      "type": "function"
    },
    {
      "constant": true,
      "inputs": [],
      "name": "m",
      "outputs": [
        {
          "name": "",
          "type": "uint256"
        }
      ],
      "payable": false,
      "stateMutability": "view",
      "type": "function"
    },
    {
      "inputs": [
        {
          "name": "_publicParameters",
          "type": "address"
        },
        {
          "name": "_ipVerifier",
          "type": "address"
        }
      ],
      "payable": false,
      "stateMutability": "nonpayable",
      "type": "constructor"
    },
    {
      "anonymous": false,
      "inputs": [
        {
          "indexed": false,
          "name": "x",
          "type": "uint256"
        },
        {
          "indexed": false,
          "name": "y",
          "type": "uint256"
        }
      ],
      "name": "Proof",
      "type": "event"
    },
    {
      "constant": true,
      "inputs": [
        {
          "name": "commitments",
          "type": "uint256[]"
        },
        {
          "name": "coords",
          "type": "uint256[8]"
        },
        {
          "name": "scalars",
          "type": "uint256[5]"
        },
        {
          "name": "ls_coords",
          "type": "uint256[8]"
        },
        {
          "name": "rs_coords",
          "type": "uint256[8]"
        }
      ],
      "name": "verify",
      "outputs": [
        {
          "name": "",
          "type": "bool"
        }
      ],
      "payable": false,
      "stateMutability": "view",
      "type": "function"
    }
  ],
  "bytecode": "0x60806040523480156200001157600080fd5b5060405160408062001d3b833981018060405262000033919081019062000376565b600160a060020a03821615156200004957600080fd5b600160a060020a03811615156200005f57600080fd5b60008054600160a060020a03808516600160a060020a03199283161780845560018054868416941693909317909255604080517f5a2ee01900000000000000000000000000000000000000000000000000000000815290519290911692635a2ee019926004808401936020939083900390910190829087803b158015620000e557600080fd5b505af1158015620000fa573d6000803e3d6000fd5b505050506040513d601f19601f82011682018060405250620001209190810190620003b5565b6010146200012d57600080fd5b6000809054906101000a9004600160a060020a0316600160a060020a0316632e52d6066040518163ffffffff167c0100000000000000000000000000000000000000000000000000000000028152600401602060405180830381600087803b1580156200019957600080fd5b505af1158015620001ae573d6000803e3d6000fd5b505050506040513d601f19601f82011682018060405250620001d49190810190620003b5565b600414620001e157600080fd5b600160009054906101000a9004600160a060020a0316600160a060020a0316635a2ee0196040518163ffffffff167c0100000000000000000000000000000000000000000000000000000000028152600401602060405180830381600087803b1580156200024e57600080fd5b505af115801562000263573d6000803e3d6000fd5b505050506040513d601f19601f82011682018060405250620002899190810190620003b5565b6010146200029657600080fd5b600160009054906101000a9004600160a060020a0316600160a060020a0316632e52d6066040518163ffffffff167c0100000000000000000000000000000000000000000000000000000000028152600401602060405180830381600087803b1580156200030357600080fd5b505af115801562000318573d6000803e3d6000fd5b505050506040513d601f19601f820116820180604052506200033e9190810190620003b5565b6004146200034b57600080fd5b5050620003ed565b6000620003618251620003de565b9392505050565b6000620003618251620003ea565b600080604083850312156200038a57600080fd5b600062000398858562000353565b9250506020620003ab8582860162000353565b9150509250929050565b600060208284031215620003c857600080fd5b6000620003d6848462000368565b949350505050565b600160a060020a031690565b90565b61193e80620003fd6000396000f3006080604052600436106100535763ffffffff60e060020a60003504166326ff9c6881146100585780632e52d606146100835780632fe6b34d146100a55780635a2ee019146100ba578063d209caa1146100cf575b600080fd5b34801561006457600080fd5b5061006d6100fc565b60405161007a91906117b4565b60405180910390f35b34801561008f57600080fd5b5061009861010b565b60405161007a919061183f565b3480156100b157600080fd5b5061006d610110565b3480156100c657600080fd5b5061009861011f565b3480156100db57600080fd5b506100ef6100ea366004611604565b610124565b60405161007a91906117a6565b600154600160a060020a031681565b600481565b600054600160a060020a031681565b601081565b60008061012f6111bd565b6060600061013b611213565b8a516000906001161561014d57600080fd5b8b5160029004955085601081151561016157fe5b061561016c57600080fd5b856040519080825280602002602001820160405280156101a657816020015b610193611249565b81526020019060019003908161018b5790505b509350600092505b858310156102255760408051908101604052808d856002028151811015156101d257fe5b9060200190602002015181526020018d856002026001018151811015156101f557fe5b90602001906020020151815250848481518110151561021057fe5b602090810290910101526001909201916101ae565b60408051808201909152808c6000602090810291909101518252018c600160200201519052855260408051808201909152808c6002602090810291909101518252018c600360209081029190910151909152860152604080516080810182529081908101808e6004602090810291909101518252018e60056020020151815250815260200160408051908101604052808e60066008811015156102c457fe5b602090810291909101518252018e6007602002015190529052604086015289600060200201516060860152896001602002015160808601528960026020908102919091015160a087015260c0860183905289835282018890528960036020020151604083015289600460200201518260600181815250506103c78c86600001516000015187600001516020015188602001516000015189602001516020015160405180868051906020019060200280838360005b83811015610390578181015183820152602001610378565b50505050905001858152602001848152602001838152602001828152602001955050505050506040518091039020600190046103e4565b90506103d48185876103fe565b9c9b505050505050505050505050565b6000805160206118e5833981519152808206905b50919050565b6000610408611249565b610410611249565b610418611260565b610420611260565b61042861128f565b6000610432611260565b61043a61132a565b6000809054906101000a9004600160a060020a0316600160a060020a0316636fecb6236040518163ffffffff1660e060020a0281526004016040805180830381600087803b15801561048b57600080fd5b505af115801561049f573d6000803e3d6000fd5b505050506040513d601f19601f820116820180604052506104c391908101906116b2565b60008054604080517f70a5d8610000000000000000000000000000000000000000000000000000000081528151949c50600160a060020a03909216936370a5d861936004808501948390030190829087803b15801561052157600080fd5b505af1158015610535573d6000803e3d6000fd5b505050506040513d601f19601f8201168201806040525061055991908101906116b2565b96506000809054906101000a9004600160a060020a0316600160a060020a031662e71aaf6040518163ffffffff1660e060020a02815260040161040060405180830381600087803b1580156105ad57600080fd5b505af11580156105c1573d6000803e3d6000fd5b505050506040513d601f19601f820116820180604052506105e591908101906115e5565b95506000809054906101000a9004600160a060020a0316600160a060020a031663e1db76d86040518163ffffffff1660e060020a02815260040161040060405180830381600087803b15801561063a57600080fd5b505af115801561064e573d6000803e3d6000fd5b505050506040513d601f19601f8201168201806040525061067291908101906115e5565b94508a51601081151561068157fe5b046101c08501528b84526106948c610b85565b602080860191909152845160408051918252519081900390910190206106b9906103e4565b604085018190528b516106cf9190600290610be2565b84606001819052506106e960026000866101c00151610be2565b6080850181905260608501516106ff9190610cd6565b8460a00181905250610728846040015161071c8660600151610d53565b9063ffffffff610d9216565b60c085018190526101c085015161079e9161075d9161075190829060020a63ffffffff610d9216565b9063ffffffff610db116565b6107516107918760600151600081518110151561077657fe5b6020908102909101015160408901519063ffffffff610db116565b61071c8860200151610de0565b61012085015260408a810151805180516020918201519282015180519083015185519283529282019390935280840192909252606082015290519081900360800190206107ea906103e4565b60e085015260608a015161082b9061080990899063ffffffff610e1816565b60a08c015161081f908b9063ffffffff610e1816565b9063ffffffff610e7e16565b61010085015260e084015161087d906108679061084e908063ffffffff610d9216565b60408d015160015b60200201519063ffffffff610e1816565b60e086015160408d015161081f91906000610856565b610140850152600092505b8a518310156108fa576108e96108d78560600151858151811015156108a957fe5b906020019060200201518d868151811015156108c157fe5b602090810290910101519063ffffffff610e1816565b6101408601519063ffffffff610e7e16565b610140850152600190920191610888565b6109156108d78561012001518a610e1890919063ffffffff16565b6101408501819052610100850151610933919063ffffffff610ec516565b15156109425760009850610b76565b6060808b015160808c015160a08d01516040805193845260208401929092528282015251908190039091019020610978906103e4565b610160850181905261099190899063ffffffff610e1816565b61018085015283516109b69086906109b1906109ac90610ee9565b610b85565b610f83565b91506109d76109cd85602001518660400151610fd0565b8560a0015161100d565b9050610a056109f78560e001518c60200151610e1890919063ffffffff16565b8b519063ffffffff610e7e16565b846101a00181905250610a48610a36610a21866040015161106b565b610a2a8961107e565b9063ffffffff610e1816565b6101a08601519063ffffffff610e7e16565b6101a0850152610a5b610a3683836110c0565b6101a085015260808a0151610a8490610a3690610a7f908a9063ffffffff610e1816565b611122565b6101a085015260a08a0151610180850151610aa991610a36919063ffffffff610e1816565b6101a0850181905260015460c08c0151805160208201516040808401516060909401516101808b015191517f09dae060000000000000000000000000000000000000000000000000000000008152600160a060020a03909616966309dae06096610b2196919594939192918f918c91906004016117c2565b602060405180830381600087803b158015610b3b57600080fd5b505af1158015610b4f573d6000803e3d6000fd5b505050506040513d601f19601f82011682018060405250610b739190810190611694565b98505b50505050505050509392505050565b610b8d61132a565b600181526020810182905260025b60108110156103f857610bc98383600019840160108110610bb857fe5b60200201519063ffffffff610d9216565b828260108110610bd557fe5b6020020152600101610b9b565b6060600082604051908082528060200260200182016040528015610c10578160200160208202803883390190505b5091506001826000815181101515610c2457fe5b602090810290910101525060008315610c8d575060005b83811015610c8d57610c6c85836000815181101515610c5657fe5b602090810290910101519063ffffffff610d9216565b826000815181101515610c7b57fe5b60209081029091010152600101610c3b565b5060015b82811015610cce57610cae858360018403815181101515610c5657fe5b8282815181101515610cbc57fe5b60209081029091010152600101610c91565b509392505050565b610cde61132a565b82516000805b8451821015610d4a575060005b82811015610d3f57610d228583815181101515610d0a57fe5b906020019060200201518783815181101515610c5657fe5b84838502830160108110610d3257fe5b6020020152600101610cf1565b600190910190610ce4565b50505092915050565b6000805b82518110156103f857610d888382815181101515610d7157fe5b60209081029091010151839063ffffffff6111a016565b9150600101610d57565b60006000805160206118e58339815191528083850991505b5092915050565b60006000805160206118e583398151915282841015610dd4578383820301610dd8565b8284035b949350505050565b6000805b60108110156103f857610e0e838260108110610dfc57fe5b6020020151839063ffffffff6111a016565b9150600101610de4565b610e20611249565b610e2861134a565b8260011415610e3957839150610daa565b8260021415610e5357610e4c8485610e7e565b9150610daa565b83518152602080850151908201526040808201849052826060836007600019fa1515610daa57600080fd5b610e86611249565b610e8e611369565b83518152602080850151818301528351604080840191909152908401516060830152826080836006600019fa1515610daa57600080fd5b80518251600091148015610ee0575081602001518360200151145b90505b92915050565b60006000805160206118e5833981519152828280808080851515610f105760009750610f77565b86861115610f27578686811515610f2357fe5b0695505b600193508692508591505b8115610f5d578183811515610f4357fe5b949594048581029094039391928383029003919050610f32565b6000851215610f73578460000387039750610f77565b8497505b50505050505050919050565b610f8b611260565b60005b6010811015610daa57610fb7838260108110610fa657fe5b602002015185836010811061085657fe5b828260108110610fc357fe5b6020020152600101610f8e565b610fd861132a565b60005b6010811015610daa57610ff483858360108110610bb857fe5b82826010811061100057fe5b6020020152600101610fdb565b61101561132a565b60005b6010811015610daa5761105283826010811061103057fe5b602002015185836010811061104157fe5b60200201519063ffffffff6111a016565b82826010811061105e57fe5b6020020152600101611018565b6000805160206118e58339815191520390565b611086611249565b50805160015b60108110156103f8576110b68382601081106110a457fe5b6020020151839063ffffffff610e7e16565b915060010161108c565b6110c8611249565b81516000906110d8908583610856565b9150600190505b6010811015610daa5761111861110b8483601081106110fa57fe5b602002015186846010811061085657fe5b839063ffffffff610e7e16565b91506001016110df565b61112a611249565b815160009015801561113e57506020830151155b1561115e57604080518082019091526000808252602082015291506103f8565b505060408051808201909152815181526020918201517f30644e72e131a029b85045b68181585d97816a916871ca8d3c208c16d87cfd47039181019190915290565b60006000805160206118e583398151915280838508949350505050565b6103a0604051908101604052806111d2611249565b81526020016111df611249565b81526020016111ec611388565b815260200160008152602001600081526020016000815260200161120e611213565b905290565b610240604051908101604052806112286113b6565b81526020016112356113b6565b815260200160008152602001600081525090565b604080518082019091526000808252602082015290565b610400604051908101604052806010905b611279611249565b8152602001906001900390816112715790505090565b61062060405190810160405280600081526020016112ab61132a565b81526020016000815260200160608152602001606081526020016112cd61132a565b815260200160008152602001600081526020016112e8611249565b8152602001600081526020016112fc611249565b815260200160008152602001611310611249565b815260200161131d611249565b8152602001600081525090565b610200604051908101604052806010906020820280388339509192915050565b6060604051908101604052806003906020820280388339509192915050565b6080604051908101604052806004906020820280388339509192915050565b6080604051908101604052806002905b6113a0611249565b8152602001906001900390816113985790505090565b610100604051908101604052806008906020820280388339509192915050565b6000601f820183136113e757600080fd5b60106113fa6113f582611874565b61184d565b9150818385604084028201111561141057600080fd5b60005b8381101561143e57816114268882611586565b84525060209092019160409190910190600101611413565b5050505092915050565b6000601f8201831361145957600080fd5b60056114676113f582611874565b9150818385602084028201111561147d57600080fd5b60005b8381101561143e578161149388826115cd565b8452506020928301929190910190600101611480565b6000601f820183136114ba57600080fd5b60086114c86113f582611874565b915081838560208402820111156114de57600080fd5b60005b8381101561143e57816114f488826115cd565b84525060209283019291909101906001016114e1565b6000601f8201831361151b57600080fd5b81356115296113f582611892565b9150818183526020840193506020810190508385602084028201111561154e57600080fd5b60005b8381101561143e578161156488826115cd565b8452506020928301929190910190600101611551565b6000610ee082516118d4565b60006040828403121561159857600080fd5b6115a2604061184d565b905060006115b084846115d9565b82525060206115c1848483016115d9565b60208301525092915050565b6000610ee082356118b3565b6000610ee082516118b3565b600061040082840312156115f857600080fd5b6000610dd884846113d6565b60008060008060006103c0868803121561161d57600080fd5b853567ffffffffffffffff81111561163457600080fd5b6116408882890161150a565b9550506020611651888289016114a9565b94505061012061166388828901611448565b9350506101c0611675888289016114a9565b9250506102c0611687888289016114a9565b9150509295509295909350565b6000602082840312156116a657600080fd5b6000610dd8848461157a565b6000604082840312156116c457600080fd5b6000610dd88484611586565b6116d9816118b6565b6116e2826118b3565b60005b82811015611712576116f8858351611773565b611701826118c2565b6040959095019491506001016116e5565b5050505050565b611722816118bc565b61172b826118b3565b60005b828110156117125761174185835161179d565b61174a826118c2565b60209590950194915060010161172e565b611764816118d4565b82525050565b611764816118d9565b80516040830190611784848261179d565b506020820151611797602085018261179d565b50505050565b611764816118b3565b60208101610ee3828461175b565b60208101610ee3828461176a565b610ac081016117d1828b611773565b6117de604083018a611719565b6117ec610140830189611719565b6117fa61024083018861179d565b61180861026083018761179d565b6118166102808301866116d0565b6118246106808301856116d0565b611832610a80830184611773565b9998505050505050505050565b60208101610ee3828461179d565b60405181810167ffffffffffffffff8111828210171561186c57600080fd5b604052919050565b600067ffffffffffffffff82111561188b57600080fd5b5060200290565b600067ffffffffffffffff8211156118a957600080fd5b5060209081020190565b90565b50601090565b50600890565b60200190565b600160a060020a031690565b151590565b6000610ee3826118c8560030644e72e131a029b85045b68181585d2833e84879b9709143e1f593f0000001a265627a7a723058204d6eed06b6346012fe5717f6e0909e4965c96dfdb3673023bea15cc2414cee8c6c6578706572696d656e74616cf50037",
  "source": "pragma solidity ^0.4.24;\r\npragma experimental ABIEncoderV2;\r\n\r\nimport \"./alt_bn128.sol\";\r\nimport \"./InnerProductVerifier.sol\";\r\nimport \"./PublicParameters.sol\";\r\n\r\ncontract BulletproofVerifier {\r\n    using alt_bn128 for uint256;\r\n    using alt_bn128 for alt_bn128.G1Point;\r\n\r\n    uint256 public constant m = 16;\r\n    uint256 public constant n = 4;\r\n\r\n    PublicParameters public publicParameters;\r\n    InnerProductVerifier public ipVerifier;\r\n\r\n    constructor (\r\n        address _publicParameters,\r\n        address _ipVerifier\r\n    ) public {\r\n        require(_publicParameters != address(0));\r\n        require(_ipVerifier != address(0));\r\n        publicParameters = PublicParameters(_publicParameters);\r\n        ipVerifier = InnerProductVerifier(_ipVerifier);\r\n        require(m == publicParameters.m());\r\n        require(n == publicParameters.n());\r\n        require(m == ipVerifier.m());\r\n        require(n == ipVerifier.n());\r\n    }\r\n\r\n    function verify(\r\n        uint256[] commitments, // multiple of 2 items of Peddersen commitments\r\n        uint256[8] coords, // [A_x, A_y, S_x, S_y, commits[0]_x, commits[0]_y, commits[1]_x, commits[1]_y]\r\n        uint256[5] scalars, // [tauX, mu, t, a, b]\r\n        uint256[2*n] ls_coords, // 2 * n\r\n        uint256[2*n] rs_coords  // 2 * n\r\n    ) public \r\n    view \r\n    returns (bool) {\r\n        require(commitments.length % 2 == 0);\r\n        uint256 numOfCommitments = commitments.length/2;\r\n        require(m % numOfCommitments == 0);\r\n        MultiRangeProof memory multiRangeProof;\r\n        alt_bn128.G1Point[] memory input = new alt_bn128.G1Point[](numOfCommitments);\r\n        uint256 i = 0;\r\n        for (i = 0; i < numOfCommitments; i++) {\r\n            input[i] = alt_bn128.G1Point(commitments[2*i], commitments[2*i+1]);\r\n        }\r\n        multiRangeProof.aI = alt_bn128.G1Point(coords[0], coords[1]);\r\n        multiRangeProof.s = alt_bn128.G1Point(coords[2], coords[3]);\r\n        multiRangeProof.tCommits = [alt_bn128.G1Point(coords[4], coords[5]), alt_bn128.G1Point(coords[6], coords[7])];\r\n        multiRangeProof.tauX = scalars[0];\r\n        multiRangeProof.mu = scalars[1];\r\n        multiRangeProof.t = scalars[2];\r\n        InnerProductProof memory ipProof;\r\n        multiRangeProof.ipProof = ipProof;\r\n        ipProof.ls = ls_coords;\r\n        ipProof.rs = rs_coords;\r\n        ipProof.a = scalars[3];\r\n        ipProof.b = scalars[4];\r\n\r\n        uint256 yPrecomputed = uint256(keccak256(\r\n            commitments,\r\n            multiRangeProof.aI.X,\r\n            multiRangeProof.aI.Y,\r\n            multiRangeProof.s.X,\r\n            multiRangeProof.s.Y))\r\n        .mod();\r\n\r\n        return verifyInternal(yPrecomputed, input, multiRangeProof);\r\n    }\r\n\r\n    struct MultiRangeProof {\r\n        alt_bn128.G1Point aI;\r\n        alt_bn128.G1Point s;\r\n        alt_bn128.G1Point[2] tCommits;\r\n        uint256 tauX;\r\n        uint256 mu;\r\n        uint256 t;\r\n        InnerProductProof ipProof;\r\n    }\r\n\r\n    struct InnerProductProof {\r\n        uint256[2*n] ls;\r\n        uint256[2*n] rs;\r\n        uint256 a;\r\n        uint256 b;\r\n    }\r\n\r\n    event Proof(uint256 x, uint256 y);\r\n\r\n    struct Board {\r\n        uint256 y;\r\n        uint256[m] ys;\r\n        uint256 z;\r\n        uint256[] zs;\r\n        uint256[] twos;\r\n        uint256[m] twoTimesZSquared;\r\n        uint256 zSum;\r\n        uint256 x;\r\n        alt_bn128.G1Point lhs;\r\n        uint256 k;\r\n        alt_bn128.G1Point rhs;\r\n        uint256 uChallenge;\r\n        alt_bn128.G1Point u;\r\n        alt_bn128.G1Point P;\r\n        uint256 bitsPerNumber;\r\n    }\r\n\r\n    function verifyInternal(\r\n        uint256 yPrecomputed,\r\n        alt_bn128.G1Point[] input,\r\n        MultiRangeProof proof\r\n    ) internal \r\n    view \r\n    returns (bool) {\r\n        alt_bn128.G1Point memory G = publicParameters.G();\r\n        alt_bn128.G1Point memory H = publicParameters.H();\r\n        alt_bn128.G1Point[m] memory gs = publicParameters.gs();\r\n        alt_bn128.G1Point[m] memory hs = publicParameters.hs();\r\n\r\n        Board memory b;\r\n        b.bitsPerNumber = m / input.length;\r\n        b.y = yPrecomputed;\r\n        b.ys = powers(b.y);\r\n        b.z = uint256(keccak256(b.y)).mod();\r\n        b.zs = powers(b.z, 2, input.length);\r\n        b.twos = powers(2, 0, b.bitsPerNumber);\r\n\r\n        b.twoTimesZSquared = timesAndConcat(b.twos, b.zs);\r\n        // const zSum = zs.sum().mul(z).umod(q);\r\n        b.zSum = sumScalars(b.zs).mul(b.z);\r\n        // const k = ys.sum().mul(z.sub(zs.get(0))).sub(zSum.shln(bitsPerNumber).sub(zSum)).umod(q);\r\n        b.k = sumScalars(b.ys).mul(b.z.sub(b.zs[0])).sub(b.zSum.mul(2 ** b.bitsPerNumber).sub(b.zSum));\r\n\r\n        b.x = uint256(keccak256(proof.tCommits[0].X, proof.tCommits[0].Y, proof.tCommits[1].X, proof.tCommits[1].Y)).mod();\r\n\r\n        // const lhs = base.commit(t, tauX);\r\n        b.lhs = G.mul(proof.t).add(H.mul(proof.tauX));\r\n\r\n        // const rhs = tCommits.commit([x, x.pow(TWO)])\r\n        b.rhs = proof.tCommits[0].mul(b.x).add(proof.tCommits[1].mul(b.x.mul(b.x)));\r\n        // .add(commitments.commit(zs.getVector()))\r\n        for (uint256 i = 0; i < input.length; i++) {\r\n            b.rhs = b.rhs.add(input[i].mul(b.zs[i]));\r\n        }\r\n        // .add(base.commit(k, ZERO));\r\n        b.rhs = b.rhs.add(G.mul(b.k));\r\n        \r\n        if (!b.rhs.eq(b.lhs)) {\r\n            return false;\r\n        }\r\n\r\n        // const uChallenge = ProofUtils.computeChallengeForBigIntegers(q,[tauX, mu, t]);\r\n        b.uChallenge = uint256(keccak256(proof.tauX, proof.mu, proof.t)).mod();\r\n\r\n        // const u = base.g.mul(uChallenge);\r\n        b.u = G.mul(b.uChallenge);\r\n\r\n        // const hPrimes = hs.hadamard(ys.invert().getVector());\r\n        alt_bn128.G1Point[m] memory hPrimes = haddamard(hs, powers(b.y.inv()));\r\n\r\n        // const hExp = ys.times(z).addVector(twoTimesZSquared);\r\n        uint256[m] memory hExp = addVectors(times(b.ys, b.z), b.twoTimesZSquared);\r\n\r\n        // const P = a.add(s.mul(x))\r\n        b.P = proof.aI.add(proof.s.mul(b.x));\r\n        // .add(gs.sum().mul(z.neg()))\r\n        b.P = b.P.add(sumPoints(gs).mul(b.z.neg()));\r\n        // .add(hPrimes.commit(hExp.getVector()))\r\n        b.P = b.P.add(commit(hPrimes, hExp));\r\n        // .sub(base.h.mul(mu))\r\n        b.P = b.P.add(H.mul(proof.mu).neg());\r\n        // .add(u.mul(t));\r\n        b.P = b.P.add(b.u.mul(proof.t));\r\n        return ipVerifier.verifyWithCustomParams(b.P, proof.ipProof.ls, proof.ipProof.rs, proof.ipProof.a, proof.ipProof.b, gs, hPrimes, b.u);\r\n    }\r\n\r\n    function addVectors(uint256[m] a, uint256[m] b) internal pure returns (uint256[m] result) {\r\n        for (uint256 i = 0; i < m; i++) {\r\n            result[i] = a[i].add(b[i]);\r\n        }\r\n    }\r\n\r\n    function haddamard(alt_bn128.G1Point[m] ps, uint256[m] ss) internal view returns (alt_bn128.G1Point[m] result) {\r\n        for (uint256 i = 0; i < m; i++) {\r\n            result[i] = ps[i].mul(ss[i]);\r\n        }\r\n    }\r\n\r\n    function sumScalars(uint256[m] ys) internal pure returns (uint256 result) {\r\n        for (uint256 i = 0; i < m; i++) {\r\n            result = result.add(ys[i]);\r\n        }\r\n    }\r\n\r\n    function sumScalars(uint256[] ys) internal pure returns (uint256 result) {\r\n        for (uint256 i = 0; i < ys.length; i++) {\r\n            result = result.add(ys[i]);\r\n        }\r\n    }\r\n\r\n    function sumPoints(alt_bn128.G1Point[m] ps) internal view returns (alt_bn128.G1Point sum) {\r\n        sum = ps[0];\r\n        for (uint256 i = 1; i < m; i++) {\r\n            sum = sum.add(ps[i]);\r\n        }\r\n    }\r\n\r\n    function commit(alt_bn128.G1Point[m] ps, uint256[m] ss) internal view returns (alt_bn128.G1Point commitment) {\r\n        commitment = ps[0].mul(ss[0]);\r\n        for (uint256 i = 1; i < m; i++) {\r\n            commitment = commitment.add(ps[i].mul(ss[i]));\r\n        }\r\n    }\r\n\r\n    function powers(uint256 base) internal pure returns (uint256[m] pow) {\r\n        pow[0] = 1;\r\n        pow[1] = base;\r\n        for (uint256 i = 2; i < m; i++) {\r\n            pow[i] = pow[i-1].mul(base);\r\n        }\r\n    }\r\n\r\n    function powers(uint256 base, uint256 firstPower, uint256 numberOfPowers) internal pure returns (uint256[] pow) {\r\n        pow = new uint256[](numberOfPowers);\r\n        pow[0] = 1;\r\n        uint256 i = 0;\r\n        if (firstPower != 0) {\r\n            for (i = 0; i < firstPower; i++) {\r\n                pow[0] = pow[0].mul(base);\r\n            }\r\n        } \r\n        for (i = 1; i < numberOfPowers; i++) {\r\n            pow[i] = pow[i-1].mul(base);\r\n        }\r\n    }\r\n\r\n    function times(uint256[m] v, uint256 x) internal pure returns (uint256[m] result) {\r\n        for (uint256 i = 0; i < m; i++) {\r\n            result[i] = v[i].mul(x);\r\n        }\r\n    }\r\n\r\n    function timesAndConcat(uint256[] v, uint256[] xs) internal pure returns(uint256[m] result) { //twos, zs. twos.times(z).reduce()\r\n        uint256 vLength = v.length;\r\n        for (uint256 i = 0; i < xs.length; i++) {\r\n            for (uint256 j = 0; j < vLength; j++) {\r\n                result[i*vLength + j] = v[j].mul(xs[i]);\r\n            }\r\n        }\r\n    }\r\n}\r\n",
  "sourcePath": "C:\\Users\\dva\\Documents\\Development\\ELCA\\confidential-transactions-smart-contracts\\contracts\\BulletproofVerifier.sol",
  "compiler": {
    "name": "solc",
    "version": "0.4.24+commit.e67f0147.Emscripten.clang"
  },
  "schemaVersion": "2.0.1",
  "updatedAt": "2018-07-16T15:52:16.370Z"
}