{
  "contractName": "Consortium",
  "abi": [
    {
      "constant": true,
      "inputs": [
        {
          "name": "",
          "type": "address"
        }
      ],
      "name": "memberId",
      "outputs": [
        {
          "name": "",
          "type": "uint256"
        }
      ],
      "payable": false,
      "stateMutability": "view",
      "type": "function"
    },
    {
      "constant": true,
      "inputs": [
        {
          "name": "",
          "type": "uint256"
        }
      ],
      "name": "members",
      "outputs": [
        {
          "name": "name",
          "type": "string"
        },
        {
          "name": "member",
          "type": "address"
        },
        {
          "name": "organization",
          "type": "address"
        },
        {
          "name": "since",
          "type": "uint256"
        }
      ],
      "payable": false,
      "stateMutability": "view",
      "type": "function"
    },
    {
      "constant": false,
      "inputs": [],
      "name": "renounceOwnership",
      "outputs": [],
      "payable": false,
      "stateMutability": "nonpayable",
      "type": "function"
    },
    {
      "constant": false,
      "inputs": [],
      "name": "destroy",
      "outputs": [],
      "payable": false,
      "stateMutability": "nonpayable",
      "type": "function"
    },
    {
      "constant": true,
      "inputs": [],
      "name": "owner",
      "outputs": [
        {
          "name": "",
          "type": "address"
        }
      ],
      "payable": false,
      "stateMutability": "view",
      "type": "function"
    },
    {
      "constant": false,
      "inputs": [
        {
          "name": "_newOwner",
          "type": "address"
        }
      ],
      "name": "transferOwnership",
      "outputs": [],
      "payable": false,
      "stateMutability": "nonpayable",
      "type": "function"
    },
    {
      "constant": false,
      "inputs": [
        {
          "name": "_recipient",
          "type": "address"
        }
      ],
      "name": "destroyAndSend",
      "outputs": [],
      "payable": false,
      "stateMutability": "nonpayable",
      "type": "function"
    },
    {
      "inputs": [],
      "payable": false,
      "stateMutability": "nonpayable",
      "type": "constructor"
    },
    {
      "anonymous": false,
      "inputs": [
        {
          "indexed": false,
          "name": "member",
          "type": "address"
        },
        {
          "indexed": false,
          "name": "isMember",
          "type": "bool"
        }
      ],
      "name": "MembershipChanged",
      "type": "event"
    },
    {
      "anonymous": false,
      "inputs": [
        {
          "indexed": true,
          "name": "previousOwner",
          "type": "address"
        }
      ],
      "name": "OwnershipRenounced",
      "type": "event"
    },
    {
      "anonymous": false,
      "inputs": [
        {
          "indexed": true,
          "name": "previousOwner",
          "type": "address"
        },
        {
          "indexed": true,
          "name": "newOwner",
          "type": "address"
        }
      ],
      "name": "OwnershipTransferred",
      "type": "event"
    },
    {
      "constant": false,
      "inputs": [
        {
          "name": "_targetMember",
          "type": "address"
        },
        {
          "name": "_memberName",
          "type": "string"
        }
      ],
      "name": "addMember",
      "outputs": [
        {
          "name": "",
          "type": "bool"
        }
      ],
      "payable": false,
      "stateMutability": "nonpayable",
      "type": "function"
    },
    {
      "constant": false,
      "inputs": [
        {
          "name": "_name",
          "type": "string"
        }
      ],
      "name": "updateMemberName",
      "outputs": [
        {
          "name": "",
          "type": "bool"
        }
      ],
      "payable": false,
      "stateMutability": "nonpayable",
      "type": "function"
    },
    {
      "constant": false,
      "inputs": [
        {
          "name": "_name",
          "type": "string"
        },
        {
          "name": "_memberAddress",
          "type": "address"
        }
      ],
      "name": "updateMember",
      "outputs": [
        {
          "name": "",
          "type": "bool"
        }
      ],
      "payable": false,
      "stateMutability": "nonpayable",
      "type": "function"
    },
    {
      "constant": false,
      "inputs": [
        {
          "name": "_targetMember",
          "type": "address"
        }
      ],
      "name": "removeMember",
      "outputs": [],
      "payable": false,
      "stateMutability": "nonpayable",
      "type": "function"
    },
    {
      "constant": false,
      "inputs": [],
      "name": "removeMember",
      "outputs": [],
      "payable": false,
      "stateMutability": "nonpayable",
      "type": "function"
    },
    {
      "constant": true,
      "inputs": [
        {
          "name": "_targetMember",
          "type": "address"
        }
      ],
      "name": "isMember",
      "outputs": [
        {
          "name": "",
          "type": "bool"
        }
      ],
      "payable": false,
      "stateMutability": "view",
      "type": "function"
    },
    {
      "constant": true,
      "inputs": [],
      "name": "numMembers",
      "outputs": [
        {
          "name": "",
          "type": "uint256"
        }
      ],
      "payable": false,
      "stateMutability": "view",
      "type": "function"
    }
  ],
  "bytecode": "0x60806040523480156200001157600080fd5b5060008054600160a060020a03191633179081905560408051808201909152601181527f436f6e736f727469756d2046756e64657200000000000000000000000000000060208201526200007891600160a060020a0316906401000000006200007f810204565b506200049f565b6000805481908190600160a060020a031633146200009c57600080fd5b600160a060020a0385166000908152600160205260409020549150811515620000f35760028054600160a060020a03871660009081526001602081905260409091208290559091620000f09183016200031b565b91505b83620000fe6200034f565b60208082528251818301528251829160408301919085019080838360005b83811015620001365781810151838201526020016200011c565b50505050905090810190601f168015620001645780820380516001836020036101000a031916815260200191505b5092505050604051809103906000f08015801562000186573d6000803e3d6000fd5b50905080600160a060020a031663f2fde38b866040518263ffffffff167c01000000000000000000000000000000000000000000000000000000000281526004018082600160a060020a0316600160a060020a03168152602001915050600060405180830381600087803b158015620001fe57600080fd5b505af115801562000213573d6000803e3d6000fd5b5050505060806040519081016040528085815260200186600160a060020a0316815260200182600160a060020a03168152602001428152506002838154811015156200025b57fe5b906000526020600020906004020160008201518160000190805190602001906200028792919062000360565b5060208281015160018381018054600160a060020a0319908116600160a060020a039485161790915560408087015160028701805490931690851617909155606090950151600390940193909355835190891681529081019190915281517f27b022af4a8347100c7a041ce5ccf8e14d644ff05de696315196faae8cd50c9b929181900390910190a1506001949350505050565b8154818355818111156200034a576004028160040283600052602060002091820191016200034a9190620003e5565b505050565b6040516110bb806200251883390190565b828054600181600116156101000203166002900490600052602060002090601f016020900481019282601f10620003a357805160ff1916838001178555620003d3565b82800160010185558215620003d3579182015b82811115620003d3578251825591602001919060010190620003b6565b50620003e192915062000437565b5090565b6200043491905b80821115620003e157600062000403828262000454565b50600181018054600160a060020a0319908116909155600282018054909116905560006003820155600401620003ec565b90565b6200043491905b80821115620003e157600081556001016200043e565b50805460018160011615610100020316600290046000825580601f106200047c57506200049c565b601f0160209004906000526020600020908101906200049c919062000437565b50565b61206980620004af6000396000f3006080604052600436106100cf5763ffffffff7c0100000000000000000000000000000000000000000000000000000000600035041663064640f881146100d45780630b1ca49a1461014c5780632012488a1461016f57806339106821146101c85780634698d110146101fb5780635daf08ca14610210578063715018a6146102d957806383197ef0146102ee5780638da5cb5b14610303578063904c0b3a14610334578063a230c52414610349578063c127c2471461036a578063f2fde38b146103d1578063f5074f41146103f2575b600080fd5b3480156100e057600080fd5b506040805160206004803580820135601f810184900484028501840190955284845261013894369492936024939284019190819084018382808284375094975050509235600160a060020a0316935061041392505050565b604080519115158252519081900360200190f35b34801561015857600080fd5b5061016d600160a060020a036004351661055c565b005b34801561017b57600080fd5b506040805160206004803580820135601f81018490048402850184019095528484526101389436949293602493928401919081908401838280828437509497506106fc9650505050505050565b3480156101d457600080fd5b506101e9600160a060020a0360043516610763565b60408051918252519081900360200190f35b34801561020757600080fd5b506101e9610775565b34801561021c57600080fd5b5061022860043561077c565b604051808060200185600160a060020a0316600160a060020a0316815260200184600160a060020a0316600160a060020a03168152602001838152602001828103825286818151815260200191508051906020019080838360005b8381101561029b578181015183820152602001610283565b50505050905090810190601f1680156102c85780820380516001836020036101000a031916815260200191505b509550505050505060405180910390f35b3480156102e557600080fd5b5061016d61084c565b3480156102fa57600080fd5b5061016d6108ab565b34801561030f57600080fd5b506103186108d0565b60408051600160a060020a039092168252519081900360200190f35b34801561034057600080fd5b5061016d6108df565b34801561035557600080fd5b50610138600160a060020a0360043516610a4b565b34801561037657600080fd5b5060408051602060046024803582810135601f8101859004850286018501909652858552610138958335600160a060020a0316953695604494919390910191908190840183828082843750949750610a689650505050505050565b3480156103dd57600080fd5b5061016d600160a060020a0360043516610cf5565b3480156103fe57600080fd5b5061016d600160a060020a0360043516610d18565b336000908152600160205260408120548190151561043057600080fd5b3360009081526001602052604090205460028054909190811061044f57fe5b60009182526020918290208651600490920201925061047391839190870190610dab565b506002810154604080517f7f718faf000000000000000000000000000000000000000000000000000000008152600160a060020a03868116600483015291519190921691637f718faf91602480830192600092919082900301818387803b1580156104dd57600080fd5b505af11580156104f1573d6000803e3d6000fd5b5050505060018181018054600160a060020a031916600160a060020a03861690811790915560408051918252602082019290925281517f27b022af4a8347100c7a041ce5ccf8e14d644ff05de696315196faae8cd50c9b929181900390910190a15060019392505050565b60008054600160a060020a0316331461057457600080fd5b600160a060020a038216600090815260016020526040902054151561059857600080fd5b50600160a060020a0381166000908152600160205260409020545b600254600019018110156106735760028054600183019081106105d257fe5b90600052602060002090600402016002828154811015156105ef57fe5b906000526020600020906004020160008201816000019080546001816001161561010002031660029004610624929190610e29565b506001828101548282018054600160a060020a03928316600160a060020a03199182161790915560028086015490850180549190931691161790556003928301549290910191909155016105b3565b600160a060020a03821660009081526001602052604081205560028054600019810190811061069e57fe5b600091825260208220600490910201906106b88282610e9e565b50600181018054600160a060020a03199081169091556002808301805490921690915560006003909201919091558054906106f7906000198301610ee2565b505050565b33600090815260016020526040812054151561071757600080fd5b3360009081526001602052604090205460028054849290811061073657fe5b9060005260206000209060040201600001908051906020019061075a929190610dab565b50600192915050565b60016020526000908152604090205481565b6002545b90565b600280548290811061078a57fe5b60009182526020918290206004919091020180546040805160026001841615610100026000190190931692909204601f8101859004850283018501909152808252919350918391908301828280156108235780601f106107f857610100808354040283529160200191610823565b820191906000526020600020905b81548152906001019060200180831161080657829003601f168201915b50505050600183015460028401546003909401549293600160a060020a03918216939116915084565b600054600160a060020a0316331461086357600080fd5b60008054604051600160a060020a03909116917ff8df31144d9c2f0f6b59d69b8b98abd5459d07f2742c4df920b25aae33c6482091a260008054600160a060020a0319169055565b600054600160a060020a031633146108c257600080fd5b600054600160a060020a0316ff5b600054600160a060020a031681565b3360009081526001602052604081205415156108fa57600080fd5b50336000908152600160205260409020545b600254600019018110156109cc57600280546001830190811061092b57fe5b906000526020600020906004020160028281548110151561094857fe5b90600052602060002090600402016000820181600001908054600181600116156101000203166002900461097d929190610e29565b506001828101548282018054600160a060020a03928316600160a060020a031991821617909155600280860154908501805491909316911617905560039283015492909101919091550161090c565b336000908152600160205260408120556002805460001981019081106109ee57fe5b60009182526020822060049091020190610a088282610e9e565b50600181018054600160a060020a0319908116909155600280830180549092169091556000600390920191909155805490610a47906000198301610ee2565b5050565b600160a060020a0316600090815260016020526040902054151590565b6000805481908190600160a060020a03163314610a8457600080fd5b600160a060020a0385166000908152600160205260409020549150811515610ad85760028054600160a060020a03871660009081526001602081905260409091208290559091610ad5918301610ee2565b91505b83610ae1610f0e565b60208082528251818301528251829160408301919085019080838360005b83811015610b17578181015183820152602001610aff565b50505050905090810190601f168015610b445780820380516001836020036101000a031916815260200191505b5092505050604051809103906000f080158015610b65573d6000803e3d6000fd5b50905080600160a060020a031663f2fde38b866040518263ffffffff167c01000000000000000000000000000000000000000000000000000000000281526004018082600160a060020a0316600160a060020a03168152602001915050600060405180830381600087803b158015610bdc57600080fd5b505af1158015610bf0573d6000803e3d6000fd5b5050505060806040519081016040528085815260200186600160a060020a0316815260200182600160a060020a0316815260200142815250600283815481101515610c3757fe5b90600052602060002090600402016000820151816000019080519060200190610c61929190610dab565b5060208281015160018381018054600160a060020a0319908116600160a060020a039485161790915560408087015160028701805490931690851617909155606090950151600390940193909355835190891681529081019190915281517f27b022af4a8347100c7a041ce5ccf8e14d644ff05de696315196faae8cd50c9b929181900390910190a1506001949350505050565b600054600160a060020a03163314610d0c57600080fd5b610d1581610d3b565b50565b600054600160a060020a03163314610d2f57600080fd5b80600160a060020a0316ff5b600160a060020a0381161515610d5057600080fd5b60008054604051600160a060020a03808516939216917f8be0079c531659141344cd1fd0a4f28419497f9722a3daafe3b4186f6b6457e091a360008054600160a060020a031916600160a060020a0392909216919091179055565b828054600181600116156101000203166002900490600052602060002090601f016020900481019282601f10610dec57805160ff1916838001178555610e19565b82800160010185558215610e19579182015b82811115610e19578251825591602001919060010190610dfe565b50610e25929150610f1e565b5090565b828054600181600116156101000203166002900490600052602060002090601f016020900481019282601f10610e625780548555610e19565b82800160010185558215610e1957600052602060002091601f016020900482015b82811115610e19578254825591600101919060010190610e83565b50805460018160011615610100020316600290046000825580601f10610ec45750610d15565b601f016020900490600052602060002090810190610d159190610f1e565b8154818355818111156106f7576004028160040283600052602060002091820191016106f79190610f38565b6040516110bb80610f8383390190565b61077991905b80821115610e255760008155600101610f24565b61077991905b80821115610e25576000610f528282610e9e565b50600181018054600160a060020a0319908116909155600282018054909116905560006003820155600401610f3e5600608060405234801561001057600080fd5b506040516110bb3803806110bb83398101604052805160008054600160a060020a0319163317905501805161004c906001906020840190610053565b50506100ee565b828054600181600116156101000203166002900490600052602060002090601f016020900481019282601f1061009457805160ff19168380011785556100c1565b828001600101855582156100c1579182015b828111156100c15782518255916020019190600101906100a6565b506100cd9291506100d1565b5090565b6100eb91905b808211156100cd57600081556001016100d7565b90565b610fbe806100fd6000396000f3006080604052600436106100fb5763ffffffff7c010000000000000000000000000000000000000000000000000000000060003504166306fdde0381146101005780630b7914301461018a57806323fafbe8146102285780632445573014610254578063313b23261461027857806334cf562b1461029c5780634510f2a7146102c357806356164e1e146102db5780636b0b489b146102f3578063715018a6146103175780637f718faf1461032e57806383197ef01461034f5780638da5cb5b1461036457806397597b3414610395578063a0ca1a06146103f7578063a77d56391461041b578063f2fde38b14610482578063f5074f41146104a3575b600080fd5b34801561010c57600080fd5b506101156104c4565b6040805160208082528351818301528351919283929083019185019080838360005b8381101561014f578181015183820152602001610137565b50505050905090810190601f16801561017c5780820380516001836020036101000a031916815260200191505b509250505060405180910390f35b34801561019657600080fd5b506101a2600435610551565b6040518080602001848152602001838152602001828103825285818151815260200191508051906020019080838360005b838110156101eb5781810151838201526020016101d3565b50505050905090810190601f1680156102185780820380516001836020036101000a031916815260200191505b5094505050505060405180910390f35b34801561023457600080fd5b5061024060043561060e565b604080519115158252519081900360200190f35b34801561026057600080fd5b50610240600435600160a060020a03602435166106a6565b34801561028457600080fd5b50610240600435600160a060020a03602435166106fc565b3480156102a857600080fd5b506102b16107aa565b60408051918252519081900360200190f35b3480156102cf57600080fd5b506102406004356107b1565b3480156102e757600080fd5b50610240600435610840565b3480156102ff57600080fd5b50610240600435600160a060020a0360243516610997565b34801561032357600080fd5b5061032c610a75565b005b34801561033a57600080fd5b5061032c600160a060020a0360043516610ae1565b34801561035b57600080fd5b5061032c610b8c565b34801561037057600080fd5b50610379610bb1565b60408051600160a060020a039092168252519081900360200190f35b3480156103a157600080fd5b506040805160206004803580820135601f81018490048402850184019095528484526102b1943694929360249392840191908190840183828082843750949750508435955050506020909201359150610bc09050565b34801561040357600080fd5b50610240600435600160a060020a0360243516610cc9565b34801561042757600080fd5b5060408051602060046024803582810135601f8101859004850286018501909652858552610240958335953695604494919390910191908190840183828082843750949750508435955050506020909201359150610d249050565b34801561048e57600080fd5b5061032c600160a060020a0360043516610d99565b3480156104af57600080fd5b5061032c600160a060020a0360043516610dbc565b60018054604080516020600284861615610100026000190190941693909304601f810184900484028201840190925281815292918301828280156105495780601f1061051e57610100808354040283529160200191610549565b820191906000526020600020905b81548152906001019060200180831161052c57829003601f168201915b505050505081565b600280548290811061055f57fe5b60009182526020918290206005919091020180546040805160026001841615610100026000190190931692909204601f8101859004850283018501909152808252919350918391908301828280156105f85780601f106105cd576101008083540402835291602001916105f8565b820191906000526020600020905b8154815290600101906020018083116105db57829003601f168201915b5050505050908060010154908060020154905083565b60025460009081908390811061062357600080fd5b600280548590811061063157fe5b6000918252602080832033808552600460059094029091019283018252604093849020805460ff1916600190811790915584519182529181019190915282519194507fdb99883c718ddb71f4a3ce7c304bbc851737f4c5e09e22eeaa8ed58019f4f13092908290030190a15060019392505050565b600254600090839081106106b957600080fd5b60028054859081106106c757fe5b60009182526020808320600160a060020a03871684526003600590930201919091019052604090205460ff1691505092915050565b600080548190600160a060020a0316331461071657600080fd5b6002548490811061072657600080fd5b600280548690811061073457fe5b60009182526020808320600160a060020a038816808552600593909302016003810182526040808520805460ff1916905580519384529183019390935280519294507f92eb85fab0be9088e11b128a93b2135375dfa549eaa1c6703005af53977cfc7292918290030190a1506001949350505050565b6002545b90565b6002546000908190839081106107c657600080fd5b60028054859081106107d457fe5b6000918252602080832033808552600593909302016004810182526040808520805460ff1916905580519384529183019390935280519294507fdb99883c718ddb71f4a3ce7c304bbc851737f4c5e09e22eeaa8ed58019f4f13092918290030190a15060019392505050565b600080548190600160a060020a0316331461085a57600080fd5b6002548390811061086a57600080fd5b8391505b6002546000190182101561090457600280546001840190811061088d57fe5b90600052602060002090600502016002838154811015156108aa57fe5b9060005260206000209060050201600082018160000190805460018160011615610100020316600290046108df929190610ddf565b506001820154816001015560028201548160020155905050818060010192505061086e565b60028054600019810190811061091657fe5b600091825260208220600590910201906109308282610e64565b50600060018201819055600291820155805490610951906000198301610ea8565b50604080518581526000602082015281517fd76621a6d2b899514e327677785780f5bc655d0459c1586f33b25f1e39ad67ad929181900390910190a15060019392505050565b600080548190600160a060020a031633146109b157600080fd5b600254849081106109c157600080fd5b60028054869081106109cf57fe5b60009182526020808320600160a060020a03881684526004600590930201918201905260409091205490925060ff161515610a0957600080fd5b600160a060020a0384166000818152600384016020908152604091829020805460ff1916600190811790915582519384529083015280517f92eb85fab0be9088e11b128a93b2135375dfa549eaa1c6703005af53977cfc729281900390910190a1506001949350505050565b600054600160a060020a03163314610a8c57600080fd5b60008054604051600160a060020a03909116917ff8df31144d9c2f0f6b59d69b8b98abd5459d07f2742c4df920b25aae33c6482091a26000805473ffffffffffffffffffffffffffffffffffffffff19169055565b600054600160a060020a0316331480610b045750600054600160a060020a031632145b1515610b0f57600080fd5b600160a060020a0381161515610b2457600080fd5b60008054604051600160a060020a03808516939216917f8be0079c531659141344cd1fd0a4f28419497f9722a3daafe3b4186f6b6457e091a36000805473ffffffffffffffffffffffffffffffffffffffff1916600160a060020a0392909216919091179055565b600054600160a060020a03163314610ba357600080fd5b600054600160a060020a0316ff5b600054600160a060020a031681565b60008054600160a060020a03163314610bd857600080fd5b42831015610be557600080fd5b8282101580610bf2575081155b1515610bfd57600080fd5b6002805490610c0f9060018301610ea8565b905060606040519081016040528085815260200184815260200183815250600282815481101515610c3c57fe5b90600052602060002090600502016000820151816000019080519060200190610c66929190610ed9565b5060208201518160010155604082015181600201559050507fd76621a6d2b899514e327677785780f5bc655d0459c1586f33b25f1e39ad67ad81600160405180838152602001821515151581526020019250505060405180910390a19392505050565b600254600090819084908110610cde57600080fd5b6002805486908110610cec57fe5b60009182526020808320600160a060020a03881684526004600590930201918201905260409091205460ff1693509150505092915050565b600080548190600160a060020a03163314610d3e57600080fd5b60025486908110610d4e57600080fd5b6002805488908110610d5c57fe5b600091825260209182902088516005909202019350610d8091849190890190610ed9565b5050600181810194909455600201919091555092915050565b600054600160a060020a03163314610db057600080fd5b610db981610b0f565b50565b600054600160a060020a03163314610dd357600080fd5b80600160a060020a0316ff5b828054600181600116156101000203166002900490600052602060002090601f016020900481019282601f10610e185780548555610e54565b82800160010185558215610e5457600052602060002091601f016020900482015b82811115610e54578254825591600101919060010190610e39565b50610e60929150610f47565b5090565b50805460018160011615610100020316600290046000825580601f10610e8a5750610db9565b601f016020900490600052602060002090810190610db99190610f47565b815481835581811115610ed457600502816005028360005260206000209182019101610ed49190610f61565b505050565b828054600181600116156101000203166002900490600052602060002090601f016020900481019282601f10610f1a57805160ff1916838001178555610e54565b82800160010185558215610e54579182015b82811115610e54578251825591602001919060010190610f2c565b6107ae91905b80821115610e605760008155600101610f4d565b6107ae91905b80821115610e60576000610f7b8282610e64565b506000600182018190556002820155600501610f675600a165627a7a723058203164d0f457cd492aa1e5117cb594bb3f27ff02200f88f2b3de0c1c333717c4a60029a165627a7a7230582053cbf9b96aec1f5fd1fd7b0e0b67e97131d41b7dd7ea6c24f709bd22475a98610029608060405234801561001057600080fd5b506040516110bb3803806110bb83398101604052805160008054600160a060020a0319163317905501805161004c906001906020840190610053565b50506100ee565b828054600181600116156101000203166002900490600052602060002090601f016020900481019282601f1061009457805160ff19168380011785556100c1565b828001600101855582156100c1579182015b828111156100c15782518255916020019190600101906100a6565b506100cd9291506100d1565b5090565b6100eb91905b808211156100cd57600081556001016100d7565b90565b610fbe806100fd6000396000f3006080604052600436106100fb5763ffffffff7c010000000000000000000000000000000000000000000000000000000060003504166306fdde0381146101005780630b7914301461018a57806323fafbe8146102285780632445573014610254578063313b23261461027857806334cf562b1461029c5780634510f2a7146102c357806356164e1e146102db5780636b0b489b146102f3578063715018a6146103175780637f718faf1461032e57806383197ef01461034f5780638da5cb5b1461036457806397597b3414610395578063a0ca1a06146103f7578063a77d56391461041b578063f2fde38b14610482578063f5074f41146104a3575b600080fd5b34801561010c57600080fd5b506101156104c4565b6040805160208082528351818301528351919283929083019185019080838360005b8381101561014f578181015183820152602001610137565b50505050905090810190601f16801561017c5780820380516001836020036101000a031916815260200191505b509250505060405180910390f35b34801561019657600080fd5b506101a2600435610551565b6040518080602001848152602001838152602001828103825285818151815260200191508051906020019080838360005b838110156101eb5781810151838201526020016101d3565b50505050905090810190601f1680156102185780820380516001836020036101000a031916815260200191505b5094505050505060405180910390f35b34801561023457600080fd5b5061024060043561060e565b604080519115158252519081900360200190f35b34801561026057600080fd5b50610240600435600160a060020a03602435166106a6565b34801561028457600080fd5b50610240600435600160a060020a03602435166106fc565b3480156102a857600080fd5b506102b16107aa565b60408051918252519081900360200190f35b3480156102cf57600080fd5b506102406004356107b1565b3480156102e757600080fd5b50610240600435610840565b3480156102ff57600080fd5b50610240600435600160a060020a0360243516610997565b34801561032357600080fd5b5061032c610a75565b005b34801561033a57600080fd5b5061032c600160a060020a0360043516610ae1565b34801561035b57600080fd5b5061032c610b8c565b34801561037057600080fd5b50610379610bb1565b60408051600160a060020a039092168252519081900360200190f35b3480156103a157600080fd5b506040805160206004803580820135601f81018490048402850184019095528484526102b1943694929360249392840191908190840183828082843750949750508435955050506020909201359150610bc09050565b34801561040357600080fd5b50610240600435600160a060020a0360243516610cc9565b34801561042757600080fd5b5060408051602060046024803582810135601f8101859004850286018501909652858552610240958335953695604494919390910191908190840183828082843750949750508435955050506020909201359150610d249050565b34801561048e57600080fd5b5061032c600160a060020a0360043516610d99565b3480156104af57600080fd5b5061032c600160a060020a0360043516610dbc565b60018054604080516020600284861615610100026000190190941693909304601f810184900484028201840190925281815292918301828280156105495780601f1061051e57610100808354040283529160200191610549565b820191906000526020600020905b81548152906001019060200180831161052c57829003601f168201915b505050505081565b600280548290811061055f57fe5b60009182526020918290206005919091020180546040805160026001841615610100026000190190931692909204601f8101859004850283018501909152808252919350918391908301828280156105f85780601f106105cd576101008083540402835291602001916105f8565b820191906000526020600020905b8154815290600101906020018083116105db57829003601f168201915b5050505050908060010154908060020154905083565b60025460009081908390811061062357600080fd5b600280548590811061063157fe5b6000918252602080832033808552600460059094029091019283018252604093849020805460ff1916600190811790915584519182529181019190915282519194507fdb99883c718ddb71f4a3ce7c304bbc851737f4c5e09e22eeaa8ed58019f4f13092908290030190a15060019392505050565b600254600090839081106106b957600080fd5b60028054859081106106c757fe5b60009182526020808320600160a060020a03871684526003600590930201919091019052604090205460ff1691505092915050565b600080548190600160a060020a0316331461071657600080fd5b6002548490811061072657600080fd5b600280548690811061073457fe5b60009182526020808320600160a060020a038816808552600593909302016003810182526040808520805460ff1916905580519384529183019390935280519294507f92eb85fab0be9088e11b128a93b2135375dfa549eaa1c6703005af53977cfc7292918290030190a1506001949350505050565b6002545b90565b6002546000908190839081106107c657600080fd5b60028054859081106107d457fe5b6000918252602080832033808552600593909302016004810182526040808520805460ff1916905580519384529183019390935280519294507fdb99883c718ddb71f4a3ce7c304bbc851737f4c5e09e22eeaa8ed58019f4f13092918290030190a15060019392505050565b600080548190600160a060020a0316331461085a57600080fd5b6002548390811061086a57600080fd5b8391505b6002546000190182101561090457600280546001840190811061088d57fe5b90600052602060002090600502016002838154811015156108aa57fe5b9060005260206000209060050201600082018160000190805460018160011615610100020316600290046108df929190610ddf565b506001820154816001015560028201548160020155905050818060010192505061086e565b60028054600019810190811061091657fe5b600091825260208220600590910201906109308282610e64565b50600060018201819055600291820155805490610951906000198301610ea8565b50604080518581526000602082015281517fd76621a6d2b899514e327677785780f5bc655d0459c1586f33b25f1e39ad67ad929181900390910190a15060019392505050565b600080548190600160a060020a031633146109b157600080fd5b600254849081106109c157600080fd5b60028054869081106109cf57fe5b60009182526020808320600160a060020a03881684526004600590930201918201905260409091205490925060ff161515610a0957600080fd5b600160a060020a0384166000818152600384016020908152604091829020805460ff1916600190811790915582519384529083015280517f92eb85fab0be9088e11b128a93b2135375dfa549eaa1c6703005af53977cfc729281900390910190a1506001949350505050565b600054600160a060020a03163314610a8c57600080fd5b60008054604051600160a060020a03909116917ff8df31144d9c2f0f6b59d69b8b98abd5459d07f2742c4df920b25aae33c6482091a26000805473ffffffffffffffffffffffffffffffffffffffff19169055565b600054600160a060020a0316331480610b045750600054600160a060020a031632145b1515610b0f57600080fd5b600160a060020a0381161515610b2457600080fd5b60008054604051600160a060020a03808516939216917f8be0079c531659141344cd1fd0a4f28419497f9722a3daafe3b4186f6b6457e091a36000805473ffffffffffffffffffffffffffffffffffffffff1916600160a060020a0392909216919091179055565b600054600160a060020a03163314610ba357600080fd5b600054600160a060020a0316ff5b600054600160a060020a031681565b60008054600160a060020a03163314610bd857600080fd5b42831015610be557600080fd5b8282101580610bf2575081155b1515610bfd57600080fd5b6002805490610c0f9060018301610ea8565b905060606040519081016040528085815260200184815260200183815250600282815481101515610c3c57fe5b90600052602060002090600502016000820151816000019080519060200190610c66929190610ed9565b5060208201518160010155604082015181600201559050507fd76621a6d2b899514e327677785780f5bc655d0459c1586f33b25f1e39ad67ad81600160405180838152602001821515151581526020019250505060405180910390a19392505050565b600254600090819084908110610cde57600080fd5b6002805486908110610cec57fe5b60009182526020808320600160a060020a03881684526004600590930201918201905260409091205460ff1693509150505092915050565b600080548190600160a060020a03163314610d3e57600080fd5b60025486908110610d4e57600080fd5b6002805488908110610d5c57fe5b600091825260209182902088516005909202019350610d8091849190890190610ed9565b5050600181810194909455600201919091555092915050565b600054600160a060020a03163314610db057600080fd5b610db981610b0f565b50565b600054600160a060020a03163314610dd357600080fd5b80600160a060020a0316ff5b828054600181600116156101000203166002900490600052602060002090601f016020900481019282601f10610e185780548555610e54565b82800160010185558215610e5457600052602060002091601f016020900482015b82811115610e54578254825591600101919060010190610e39565b50610e60929150610f47565b5090565b50805460018160011615610100020316600290046000825580601f10610e8a5750610db9565b601f016020900490600052602060002090810190610db99190610f47565b815481835581811115610ed457600502816005028360005260206000209182019101610ed49190610f61565b505050565b828054600181600116156101000203166002900490600052602060002090601f016020900481019282601f10610f1a57805160ff1916838001178555610e54565b82800160010185558215610e54579182015b82811115610e54578251825591602001919060010190610f2c565b6107ae91905b80821115610e605760008155600101610f4d565b6107ae91905b80821115610e60576000610f7b8282610e64565b506000600182018190556002820155600501610f675600a165627a7a723058203164d0f457cd492aa1e5117cb594bb3f27ff02200f88f2b3de0c1c333717c4a60029",
  "source": "pragma solidity ^0.4.23;\r\n\r\nimport \"openzeppelin-solidity/contracts/lifecycle/Destructible.sol\";\r\nimport \"./Organization.sol\";\r\n\r\ncontract Consortium is Destructible {\r\n\r\n    /* --- Structures and variables --- */\r\n    struct Member {\r\n        string name;\r\n        address member;\r\n        Organization organization;\r\n        uint since;\r\n    }\r\n\r\n    mapping (address => uint) public memberId;\r\n    Member[] public members;\r\n\r\n    /* --- Events --- */\r\n    event MembershipChanged(address member, bool isMember);\r\n\r\n    /* --- Modifiers --- */\r\n    modifier onlyMembers {\r\n        require(memberId[msg.sender] != 0);\r\n        _;\r\n    }\r\n\r\n    /* --- Public functions --- */\r\n\r\n    /**\r\n     * Constructor function\r\n     */\r\n    constructor() public {\r\n        addMember(owner, \"Consortium Funder\");\r\n    }\r\n\r\n    /**\r\n     * Add member\r\n     *\r\n     * Make `targetMember` a member named `memberName`\r\n     *\r\n     * @param _targetMember ethereum address to be added\r\n     * @param _memberName public name for that member\r\n     */\r\n    function addMember(address _targetMember, string _memberName) onlyOwner public returns(bool) {\r\n        uint id = memberId[_targetMember];\r\n        if (id == 0) {\r\n            memberId[_targetMember] = members.length;\r\n            id = members.length++;\r\n        }\r\n\r\n        Organization org = new Organization(_memberName);\r\n        org.transferOwnership(_targetMember);\r\n        members[id] = Member({name: _memberName, member: _targetMember, organization: org, since: now});\r\n        emit MembershipChanged(_targetMember, true);\r\n        return true;\r\n    }\r\n\r\n    /**\r\n     * Update member name\r\n     * @param _name public name for that member\r\n     */\r\n    function updateMemberName(string _name) onlyMembers public returns (bool) {\r\n        members[memberId[msg.sender]].name = _name;\r\n        return true;\r\n    }\r\n\r\n    /**\r\n     * Update member\r\n     * @param _name public name for that member\r\n     * @param _memberAddress ethereum address to be added\r\n     */\r\n    function updateMember(string _name, address _memberAddress) onlyMembers public returns (bool) {\r\n        Member storage member = members[memberId[msg.sender]];\r\n        member.name = _name;\r\n        member.organization.transferOwnershipDeep(_memberAddress);\r\n        member.member = _memberAddress;\r\n        emit MembershipChanged(_memberAddress, true);\r\n        return true;\r\n    }\r\n\r\n    /**\r\n     * Remove member \r\n     *\r\n     * @notice Remove membership from `msg.sender` called by member itself\r\n     */\r\n    function removeMember() onlyMembers public {\r\n        for (uint i = memberId[msg.sender]; i < members.length-1; i++){\r\n            members[i] = members[i+1];\r\n        }\r\n        memberId[msg.sender] = 0;\r\n        delete members[members.length-1];\r\n        members.length--;\r\n    }\r\n\r\n    /**\r\n     * Remove member\r\n     *\r\n     * @notice Remove membership from `targetMember` called by owner\r\n     * @param _targetMember ethereum address to be removed\r\n     */\r\n    function removeMember(address _targetMember) onlyOwner public {\r\n        require(memberId[_targetMember] != 0);\r\n\r\n        for (uint i = memberId[_targetMember]; i < members.length-1; i++){\r\n            members[i] = members[i+1];\r\n        }\r\n        memberId[_targetMember] = 0;\r\n        delete members[members.length-1];\r\n        members.length--;\r\n    }\r\n\r\n    /**\r\n     * Check if passed address is a Member\r\n     *\r\n     * @param _targetMember address to check\r\n     */\r\n    function isMember(address _targetMember) public view returns (bool) {\r\n        return memberId[_targetMember] != 0;\r\n    } \r\n\r\n    /**\r\n     * Returns the number of members in the consortium\r\n     */\r\n    function numMembers() public view returns (uint) {\r\n        return members.length;\r\n    }\r\n}",
  "sourcePath": "C:\\Users\\dva\\Documents\\Development\\ELCA\\confidential-transactions-smart-contracts\\contracts\\Consortium.sol",
  "compiler": {
    "name": "solc",
    "version": "0.4.24+commit.e67f0147.Emscripten.clang"
  },
  "schemaVersion": "2.0.1",
  "updatedAt": "2018-07-16T15:33:02.978Z"
}