{
  "contractName": "CTToken",
  "abi": [
    {
      "constant": true,
      "inputs": [],
      "name": "name",
      "outputs": [
        {
          "name": "",
          "type": "string"
        }
      ],
      "payable": false,
      "stateMutability": "view",
      "type": "function"
    },
    {
      "constant": true,
      "inputs": [],
      "name": "totalSupply",
      "outputs": [
        {
          "name": "",
          "type": "uint256"
        }
      ],
      "payable": false,
      "stateMutability": "view",
      "type": "function"
    },
    {
      "constant": true,
      "inputs": [],
      "name": "n",
      "outputs": [
        {
          "name": "",
          "type": "uint256"
        }
      ],
      "payable": false,
      "stateMutability": "view",
      "type": "function"
    },
    {
      "constant": true,
      "inputs": [],
      "name": "m",
      "outputs": [
        {
          "name": "",
          "type": "uint256"
        }
      ],
      "payable": false,
      "stateMutability": "view",
      "type": "function"
    },
    {
      "constant": false,
      "inputs": [],
      "name": "renounceOwnership",
      "outputs": [],
      "payable": false,
      "stateMutability": "nonpayable",
      "type": "function"
    },
    {
      "constant": true,
      "inputs": [],
      "name": "owner",
      "outputs": [
        {
          "name": "",
          "type": "address"
        }
      ],
      "payable": false,
      "stateMutability": "view",
      "type": "function"
    },
    {
      "constant": true,
      "inputs": [],
      "name": "symbol",
      "outputs": [
        {
          "name": "",
          "type": "string"
        }
      ],
      "payable": false,
      "stateMutability": "view",
      "type": "function"
    },
    {
      "constant": true,
      "inputs": [
        {
          "name": "",
          "type": "uint256"
        }
      ],
      "name": "positiveBalances",
      "outputs": [
        {
          "name": "",
          "type": "bool"
        }
      ],
      "payable": false,
      "stateMutability": "view",
      "type": "function"
    },
    {
      "constant": false,
      "inputs": [
        {
          "name": "_newOwner",
          "type": "address"
        }
      ],
      "name": "transferOwnership",
      "outputs": [],
      "payable": false,
      "stateMutability": "nonpayable",
      "type": "function"
    },
    {
      "inputs": [
        {
          "name": "_publicParameters",
          "type": "address"
        },
        {
          "name": "_bulletproofVerifier",
          "type": "address"
        }
      ],
      "payable": false,
      "stateMutability": "nonpayable",
      "type": "constructor"
    },
    {
      "anonymous": false,
      "inputs": [
        {
          "indexed": true,
          "name": "from",
          "type": "address"
        },
        {
          "indexed": false,
          "name": "pubKey",
          "type": "uint256[2]"
        }
      ],
      "name": "Registration",
      "type": "event"
    },
    {
      "anonymous": false,
      "inputs": [
        {
          "indexed": true,
          "name": "from",
          "type": "address"
        },
        {
          "indexed": false,
          "name": "pc",
          "type": "uint256"
        }
      ],
      "name": "PCRangeProven",
      "type": "event"
    },
    {
      "anonymous": false,
      "inputs": [
        {
          "indexed": true,
          "name": "from",
          "type": "address"
        },
        {
          "indexed": true,
          "name": "to",
          "type": "address"
        },
        {
          "indexed": false,
          "name": "pc",
          "type": "uint256"
        },
        {
          "indexed": false,
          "name": "id",
          "type": "uint256"
        },
        {
          "indexed": false,
          "name": "encryptedData",
          "type": "uint256[3]"
        }
      ],
      "name": "Transfer",
      "type": "event"
    },
    {
      "anonymous": false,
      "inputs": [
        {
          "indexed": true,
          "name": "from",
          "type": "address"
        },
        {
          "indexed": false,
          "name": "ids",
          "type": "uint256[]"
        }
      ],
      "name": "OutputsSpent",
      "type": "event"
    },
    {
      "anonymous": false,
      "inputs": [
        {
          "indexed": true,
          "name": "previousOwner",
          "type": "address"
        }
      ],
      "name": "OwnershipRenounced",
      "type": "event"
    },
    {
      "anonymous": false,
      "inputs": [
        {
          "indexed": true,
          "name": "previousOwner",
          "type": "address"
        },
        {
          "indexed": true,
          "name": "newOwner",
          "type": "address"
        }
      ],
      "name": "OwnershipTransferred",
      "type": "event"
    },
    {
      "constant": true,
      "inputs": [
        {
          "name": "_addr",
          "type": "address"
        }
      ],
      "name": "getPublicKey",
      "outputs": [
        {
          "name": "",
          "type": "uint256[2]"
        }
      ],
      "payable": false,
      "stateMutability": "view",
      "type": "function"
    },
    {
      "constant": true,
      "inputs": [
        {
          "name": "_addr",
          "type": "address"
        }
      ],
      "name": "isRegistered",
      "outputs": [
        {
          "name": "",
          "type": "bool"
        }
      ],
      "payable": false,
      "stateMutability": "view",
      "type": "function"
    },
    {
      "constant": true,
      "inputs": [
        {
          "name": "_addr",
          "type": "address"
        },
        {
          "name": "_id",
          "type": "uint256"
        }
      ],
      "name": "balanceOf",
      "outputs": [
        {
          "name": "",
          "type": "uint256"
        }
      ],
      "payable": false,
      "stateMutability": "view",
      "type": "function"
    },
    {
      "constant": false,
      "inputs": [
        {
          "name": "_to",
          "type": "address"
        },
        {
          "name": "_pcTo",
          "type": "uint256"
        },
        {
          "name": "_encryptedData",
          "type": "uint256[3]"
        }
      ],
      "name": "mint",
      "outputs": [
        {
          "name": "",
          "type": "bool"
        }
      ],
      "payable": false,
      "stateMutability": "nonpayable",
      "type": "function"
    },
    {
      "constant": false,
      "inputs": [
        {
          "name": "_pubKey",
          "type": "uint256[2]"
        }
      ],
      "name": "register",
      "outputs": [
        {
          "name": "",
          "type": "bool"
        }
      ],
      "payable": false,
      "stateMutability": "nonpayable",
      "type": "function"
    },
    {
      "constant": false,
      "inputs": [
        {
          "name": "_to",
          "type": "address"
        },
        {
          "name": "_pcTo",
          "type": "uint256"
        },
        {
          "name": "_pcRemaining",
          "type": "uint256"
        },
        {
          "name": "_utxoIds",
          "type": "uint256[]"
        },
        {
          "name": "_encryptedData",
          "type": "uint256[6]"
        }
      ],
      "name": "transfer",
      "outputs": [
        {
          "name": "success",
          "type": "bool"
        }
      ],
      "payable": false,
      "stateMutability": "nonpayable",
      "type": "function"
    },
    {
      "constant": false,
      "inputs": [
        {
          "name": "_pcWithdraw",
          "type": "uint256"
        },
        {
          "name": "_pcRemaining",
          "type": "uint256"
        },
        {
          "name": "_utxoIds",
          "type": "uint256[]"
        },
        {
          "name": "_encryptedData",
          "type": "uint256[6]"
        }
      ],
      "name": "withdraw",
      "outputs": [
        {
          "name": "success",
          "type": "bool"
        }
      ],
      "payable": false,
      "stateMutability": "nonpayable",
      "type": "function"
    },
    {
      "constant": false,
      "inputs": [
        {
          "name": "_utxoIds",
          "type": "uint256[]"
        }
      ],
      "name": "burn",
      "outputs": [
        {
          "name": "",
          "type": "bool"
        }
      ],
      "payable": false,
      "stateMutability": "nonpayable",
      "type": "function"
    },
    {
      "constant": false,
      "inputs": [
        {
          "name": "_commitments",
          "type": "uint256[]"
        },
        {
          "name": "_coords",
          "type": "uint256[8]"
        },
        {
          "name": "_scalars",
          "type": "uint256[5]"
        },
        {
          "name": "_lsCoords",
          "type": "uint256[8]"
        },
        {
          "name": "_rsCoords",
          "type": "uint256[8]"
        }
      ],
      "name": "verifyPCRangeProof",
      "outputs": [
        {
          "name": "",
          "type": "bool"
        }
      ],
      "payable": false,
      "stateMutability": "nonpayable",
      "type": "function"
    }
  ],
  "bytecode": "0x60806040523480156200001157600080fd5b5060405160408062001bc783398101604052805160209091015160008054600160a060020a03191633179055600160a060020a03821615156200005357600080fd5b600160a060020a03811615156200006957600080fd5b60068054600160a060020a03808516600160a060020a0319928316179283905560078054858316931692909217909155604080517f5a2ee01900000000000000000000000000000000000000000000000000000000815290519290911691635a2ee019916004808201926020929091908290030181600087803b158015620000f057600080fd5b505af115801562000105573d6000803e3d6000fd5b505050506040513d60208110156200011c57600080fd5b50516010146200012b57600080fd5b600660009054906101000a9004600160a060020a0316600160a060020a0316632e52d6066040518163ffffffff167c0100000000000000000000000000000000000000000000000000000000028152600401602060405180830381600087803b1580156200019857600080fd5b505af1158015620001ad573d6000803e3d6000fd5b505050506040513d6020811015620001c457600080fd5b5051600414620001d357600080fd5b600760009054906101000a9004600160a060020a0316600160a060020a0316635a2ee0196040518163ffffffff167c0100000000000000000000000000000000000000000000000000000000028152600401602060405180830381600087803b1580156200024057600080fd5b505af115801562000255573d6000803e3d6000fd5b505050506040513d60208110156200026c57600080fd5b50516010146200027b57600080fd5b600760009054906101000a9004600160a060020a0316600160a060020a0316632e52d6066040518163ffffffff167c0100000000000000000000000000000000000000000000000000000000028152600401602060405180830381600087803b158015620002e857600080fd5b505af1158015620002fd573d6000803e3d6000fd5b505050506040513d60208110156200031457600080fd5b50516004146200032357600080fd5b505061189280620003356000396000f3006080604052600436106100fa5763ffffffff7c0100000000000000000000000000000000000000000000000000000000600035041662fdd58e81146100ff57806306fdde031461013557806318160ddd146101bf5780632e52d606146101d45780633442af5c146101e95780635a2ee0191461023d578063715018a61461025257806375048c8114610269578063857cdbb8146103595780638da5cb5b146103b557806395d89b41146103e6578063b71218b4146103fb578063b80f55c91461047f578063c14e4379146104d4578063c3c5a54714610527578063ccee888e14610548578063deec3c7314610560578063f2fde38b146105f3575b600080fd5b34801561010b57600080fd5b50610123600160a060020a0360043516602435610614565b60408051918252519081900360200190f35b34801561014157600080fd5b5061014a61063c565b6040805160208082528351818301528351919283929083019185019080838360005b8381101561018457818101518382015260200161016c565b50505050905090810190601f1680156101b15780820380516001836020036101000a031916815260200191505b509250505060405180910390f35b3480156101cb57600080fd5b50610123610673565b3480156101e057600080fd5b50610123610679565b3480156101f557600080fd5b5060408051808201825261022991369160049160449190839060029083908390808284375093965061067e95505050505050565b604080519115158252519081900360200190f35b34801561024957600080fd5b5061012361072b565b34801561025e57600080fd5b50610267610730565b005b34801561027557600080fd5b50604080516020600480358082013583810280860185019096528085526102299536959394602494938501929182918501908490808284375050604080516101008181019092529598979681810196955093506008925084915083908082843750506040805160a08181019092529497969581810195945092506005915083908390808284375050604080516101008181019092529497969581810195945092506008915083908390808284375050604080516101008181019092529497969581810195945092506008915083908390808284375093965061079c95505050505050565b34801561036557600080fd5b5061037a600160a060020a0360043516610a9f565b6040518082600260200280838360005b838110156103a257818101518382015260200161038a565b5050505090500191505060405180910390f35b3480156103c157600080fd5b506103ca610af2565b60408051600160a060020a039092168252519081900360200190f35b3480156103f257600080fd5b5061014a610b01565b34801561040757600080fd5b506040805160206004604435818101358381028086018501909652808552610229958335956024803596369695606495939492019291829185019084908082843750506040805160c08181019092529598979681810196955093506006925084915083908082843750939650610b3895505050505050565b34801561048b57600080fd5b506040805160206004803580820135838102808601850190965280855261022995369593946024949385019291829185019084908082843750949750610bd59650505050505050565b3480156104e057600080fd5b506040805160608082019092526102299160048035600160a060020a0316926024359236929160a491604490600390839083908082843750939650610ce895505050505050565b34801561053357600080fd5b50610229600160a060020a0360043516610e36565b34801561055457600080fd5b50610229600435610e7d565b34801561056c57600080fd5b50604080516064356004818101356020818102858101820190965281855261022995600160a060020a03843516956024803596604435963696909560849592909301929091829185019084908082843750506040805160c08181019092529598979681810196955093506006925084915083908082843750939650610e9295505050505050565b3480156105ff57600080fd5b50610267600160a060020a0360043516610f54565b600160a060020a03919091166000908152600460209081526040808320938352929052205490565b60408051808201909152601181527f5377697373204672616e6320546f6b656e000000000000000000000000000000602082015281565b60015481565b600481565b8051600090158015906106945750602082015115155b151561069f57600080fd5b3360009081526002602081905260409091206106bc91849061176e565b5033600160a060020a03167f35229fae8d7d26bd0cb611b72d625ee3884a7ede572bd21b6f44838ec0fac3af836040518082600260200280838360005b838110156107115781810151838201526020016106f9565b5050505090500191505060405180910390a2506001919050565b601081565b600054600160a060020a0316331461074757600080fd5b60008054604051600160a060020a03909116917ff8df31144d9c2f0f6b59d69b8b98abd5459d07f2742c4df920b25aae33c6482091a26000805473ffffffffffffffffffffffffffffffffffffffff19169055565b60008060606000600760009054906101000a9004600160a060020a0316600160a060020a031663d209caa18a8a8a8a8a6040518663ffffffff167c0100000000000000000000000000000000000000000000000000000000028152600401808060200186600860200280838360005b8381101561082357818101518382015260200161080b565b5050505090500185600560200280838360005b8381101561084e578181015183820152602001610836565b5050505090500184600860200280838360005b83811015610879578181015183820152602001610861565b5050505090500183600860200280838360005b838110156108a457818101518382015260200161088c565b50505050905001828103825287818151815260200191508051906020019060200280838360005b838110156108e35781810151838201526020016108cb565b505050509050019650505050505050602060405180830381600087803b15801561090c57600080fd5b505af1158015610920573d6000803e3d6000fd5b505050506040513d602081101561093657600080fd5b5051151561094357600080fd5b88516002900492508260405190808252806020026020018201604052801561098557816020015b6109726117ac565b81526020019060019003908161096a5790505b509150600090505b82811015610a905760408051908101604052808a836002028151811015156109b157fe5b9060200190602002015181526020018a836002026001018151811015156109d457fe5b9060200190602002015181525082828151811015156109ef57fe5b90602001906020020181905250600160036000610a228585815181101515610a1357fe5b90602001906020020151610f77565b81526020810191909152604001600020805460ff1916911515919091179055815133907f2eb9f29757c084733ee7ef149f3a703f43f758c0ea893c1ec062766931a750dc90610a7790859085908110610a1357fe5b60408051918252519081900360200190a260010161098d565b50600198975050505050505050565b610aa76117c3565b600160a060020a0382166000908152600260208190526040918290208251808401938490529290919082845b815481526020019060010190808311610ad35750505050509050919050565b600054600160a060020a031681565b60408051808201909152600481527f4348465400000000000000000000000000000000000000000000000000000000602082015281565b6040805180820190915284815260208101849052600090815b6002811015610b995760036000838360028110610b6a57fe5b6020908102919091015182528101919091526040016000205460ff161515610b9157600080fd5b600101610b51565b600054600160a060020a0316331415610bb157600080fd5b600054610bca90600160a060020a031688888888610fb6565b979650505050505050565b6000805481908190600160a060020a03163314610bf157600080fd5b83511515610c025760019250610ce1565b5060005b8351811015610c57578381815181101515610c1d57fe5b602090810290910181015160008054600160a060020a03168152600483526040808220838352909352918220919091559150600101610c06565b600080546040805160208082528851818301528851600160a060020a03909416947f758b9b8300dfc68e4e74764062d48a944780df9918ca63770c6c0b8520890bfb948a9484939084019281870192909102908190849084905b83811015610cc9578181015183820152602001610cb1565b505050509050019250505060405180910390a2600192505b5050919050565b600080548190600160a060020a03163314610d0257600080fd5b600054600160a060020a03868116911614801590610d285750600160a060020a03851615155b1515610d3357600080fd5b60008481526003602052604090205460ff161515610d5057600080fd5b50600160a060020a038085166000818152600560209081526040808320805460018101909155600483528184208185528352818420899055835482518a8152938401829052909516927f24c720a3494fcaca3f8a6241d1a9a6b8d8301bfff10a33fe39fdf54f1a5ac46392899287928a929182019083906060908190849084905b83811015610de9578181015183820152602001610dd1565b50505050905001935050505060405180910390a3610e28610e23610e0c86611073565b610e17600154611073565b9063ffffffff61119c16565b610f77565b600190815595945050505050565b600160a060020a03811660009081526002602052604081205415801590610e775750600160a060020a03821660009081526002602052604090206001015415155b92915050565b60036020526000908152604090205460ff1681565b6040805180820190915284815260208101849052600090815b6002811015610ef35760036000838360028110610ec457fe5b6020908102919091015182528101919091526040016000205460ff161515610eeb57600080fd5b600101610eab565b600054600160a060020a03163314801590610f1c5750600054600160a060020a03898116911614155b8015610f305750600160a060020a03881615155b1515610f3b57600080fd5b610f488888888888610fb6565b98975050505050505050565b600054600160a060020a03163314610f6b57600080fd5b610f74816111ea565b50565b805160208201517f80000000000000000000000000000000000000000000000000000000000000009060019081161415610fb057908117905b50919050565b60006060610fc5868686611267565b1515610fd057600080fd5b610fdc878787866112be565b9050610fe78161147f565b1515610ff257600080fd5b604080516020808252865181830152865133937f758b9b8300dfc68e4e74764062d48a944780df9918ca63770c6c0b8520890bfb93899390928392830191808601910280838360005b8381101561105357818101518382015260200161103b565b505050509050019250505060405180910390a25060019695505050505050565b61107b6117ac565b6000806110866117c3565b7f7fffffffffffffffffffffffffffffffffffffffffffffffffffffffffffffff85168082527f800000000000000000000000000000000000000000000000000000000000000093507f30644e72e131a029b85045b68181585d97816a916871ca8d3c208c16d87cfd4792506000908190611100906115c2565b925090508115156111265760408051808201909152600080825260208201529550611192565b868516156111585780600116600114156111465760208301819052611153565b8084038360015b60200201525b611177565b806001166001141561116f5780840383600161114d565b602083018190525b60408051808201909152835181526020808501519082015295505b5050505050919050565b6111a46117ac565b6111ac6117de565b83518152602080850151818301528351604080840191909152908401516060830152826080836006600019fa15156111e357600080fd5b5092915050565b600160a060020a03811615156111ff57600080fd5b60008054604051600160a060020a03808516939216917f8be0079c531659141344cd1fd0a4f28419497f9722a3daafe3b4186f6b6457e091a36000805473ffffffffffffffffffffffffffffffffffffffff1916600160a060020a0392909216919091179055565b60006112716117ac565b6112796117ac565b6112828461169c565b915061129961129086611073565b610e1788611073565b805183519192501480156112b4575080602001518260200151145b9695505050505050565b6040805160028082526060828101909352816020015b6112dc6117fd565b8152602001906001900390816112d45790505090508481600081518110151561130157fe5b60209081029091010151600160a060020a03909116905261132184611073565b81600081518110151561133057fe5b6020908102919091018101510152815181518290600090811061134f57fe5b602090810291909101810151604001519190915282015181518290600090811061137557fe5b60209081029091010151604001516001602002015281600260200201518160008151811015156113a157fe5b60209081029091010151604001516002602002015280513390829060019081106113c757fe5b60209081029091010151600160a060020a0390911690526113e783611073565b8160018151811015156113f657fe5b6020908102919091018101510152606082015181518290600190811061141857fe5b60209081029190910101516040015152608082015181518290600190811061143c57fe5b60209081029190910181015160400151015260a082015181518290600190811061146257fe5b602090810290910101516040015160026020020152949350505050565b6000808080805b85518410156115b657858481518110151561149d57fe5b602090810290910181015151600160a060020a038116600090815260059092526040909120805460018101909155875191945092506114f5908790869081106114e257fe5b9060200190602002015160200151610f77565b600160a060020a0384166000818152600460209081526040808320878452909152902082905587519192509033907f24c720a3494fcaca3f8a6241d1a9a6b8d8301bfff10a33fe39fdf54f1a5ac46390849086908b908a90811061155557fe5b90602001906020020151604001516040518084815260200183815260200182600360200280838360005b8381101561159757818101518382015260200161157f565b50505050905001935050505060405180910390a3600190930192611486565b50600195945050505050565b6000807f30644e72e131a029b85045b68181585d97816a916871ca8d3c208c16d87cfd477f0c19139cb84c680a6e14116da060561765e05aa45a1c72a34f082305b61f3f528280808488890992508480151561161a57fe5b88840992508480151561162957fe5b60038408925084915083905060405160208152602080820152602060408201528360608201528160808201528260a082015260208160c083600060056107d05a03f18080156116775761167c565b60c083fd5b50505196508480151561168b57fe5b878809831495505050505050915091565b6116a46117ac565b600080600084511115156116b757600080fd5b5060005b8351811015610ce15733600090815260046020526040812085519091908690849081106116e457fe5b9060200190602002015181526020019081526020016000205491508160001415151561170f57600080fd5b61172861171b83611073565b849063ffffffff61119c16565b33600090815260046020526040812086519295509091829087908590811061174c57fe5b60209081029091018101518252810191909152604001600020556001016116bb565b826002810192821561179c579160200282015b8281111561179c578251825591602001919060010190611781565b506117a892915061182a565b5090565b604080518082019091526000808252602082015290565b60408051808201825290600290829080388339509192915050565b6080604051908101604052806004906020820280388339509192915050565b6040805160c0810190915260008152602081016118186117ac565b8152602001611825611847565b905290565b61184491905b808211156117a85760008155600101611830565b90565b60606040519081016040528060039060208202803883395091929150505600a165627a7a72305820e05f0f49802275654a339fbe87f556dfaebe7af528de3ad27ec7c3256d2c09460029",
  "source": "pragma solidity ^0.4.24;\r\n\r\nimport \"./alt_bn128.sol\";\r\nimport \"./BulletproofVerifier.sol\";\r\nimport \"./PublicParameters.sol\";\r\nimport \"./UTXO.sol\";\r\nimport \"openzeppelin-solidity/contracts/math/SafeMath.sol\";\r\nimport \"openzeppelin-solidity/contracts/ownership/Ownable.sol\";\r\n\r\ncontract CTToken is Ownable {\r\n    using SafeMath for uint256;\r\n    using alt_bn128 for uint256;\r\n    using alt_bn128 for alt_bn128.G1Point;\r\n\r\n    /* --- Constants --- */\r\n    uint256 public constant m = 16;\r\n    uint256 public constant n = 4;\r\n\r\n    string public constant name = \"Swiss Franc Token\";\r\n    string public constant symbol = \"CHFT\";\r\n\r\n    /* --- Structures and variables --- */\r\n    uint256 public totalSupply;\r\n\r\n    // Map of addresses to public keys. To use the system, you must register your PubKey\r\n    mapping (address => uint256[2]) private publicKeys;\r\n    \r\n    // Map of commitments which have been proven to be positive\r\n    mapping (uint256 => bool) public positiveBalances;\r\n\r\n    // Balances in the form of Pedersen commitments\r\n    mapping (address => mapping(uint256 => uint256)) private committedBalances;\r\n    mapping (address => uint256) private counters;\r\n\r\n    // Used contracts for Proof verification\r\n    PublicParameters private publicParameters;\r\n    BulletproofVerifier private bulletproofVerifier;\r\n\r\n    /* --- Events --- */\r\n    event Registration(address indexed from, uint256[2] pubKey);\r\n    event PCRangeProven (address indexed from, uint256 pc);\r\n    event Transfer(address indexed from, address indexed to, uint256 pc, uint256 id, uint256[3] encryptedData);\r\n    event OutputsSpent(address indexed from, uint256[] ids);\r\n\r\n    /* --- Modifiers --- */\r\n    \r\n    /**\r\n    * @dev checks that the PCs has been proven positive\r\n    * @param _pcs Array of PCs to check\r\n    */\r\n    modifier commitmentsAreProven(uint256[2] _pcs) {\r\n        uint256 i;\r\n        for (i = 0; i < _pcs.length; i++) {\r\n            require(positiveBalances[_pcs[i]]);\r\n        }\r\n        _;\r\n    }\r\n\r\n    /* --- Public functions --- */\r\n\r\n    constructor(address _publicParameters, address _bulletproofVerifier) public {\r\n        require(_publicParameters != address(0));\r\n        require(_bulletproofVerifier != address(0));\r\n        publicParameters = PublicParameters(_publicParameters);\r\n        bulletproofVerifier = BulletproofVerifier(_bulletproofVerifier);\r\n        require(m == publicParameters.m());\r\n        require(n == publicParameters.n());\r\n        require(m == bulletproofVerifier.m());\r\n        require(n == bulletproofVerifier.n());\r\n    }\r\n\r\n    /**\r\n    * @dev retrieves a public key\r\n    * @param _addr The address\r\n    * @return The public key at the specified address\r\n    */\r\n    function getPublicKey(address _addr) public view returns (uint256[2]) {\r\n        return publicKeys[_addr];\r\n    }\r\n\r\n    /**\r\n    * @dev Checks if the user is registered\r\n    * @param _addr The address\r\n    * @return a bool specifying if the user is registered\r\n    */\r\n    function isRegistered(address _addr) public view returns (bool) {\r\n        return (publicKeys[_addr][0] != 0 && publicKeys[_addr][1] != 0);\r\n    }\r\n  \r\n    /**\r\n    * @dev retrieves the PC balance of a user at a specified index\r\n    * @param _addr The address\r\n    * @param _id The id\r\n    * @return The PC for the specified user and id\r\n    */\r\n    function balanceOf(address _addr, uint256 _id) public view returns (uint256) {\r\n        return committedBalances[_addr][_id];\r\n    }\r\n\r\n    /**\r\n    * @dev mint tokens to the specified address account.\r\n    * @param _to The address that will receive the minted tokens.\r\n    * @param _pcTo The amount of tokens to mint in compressed PC form\r\n    * @param _encryptedData Encrypted data that should contain \"encrypted(value, blinding factor), iv\" for each output\r\n    * @return A boolean that indicates if the operation was successful.\r\n    */\r\n    function mint(address _to, uint256 _pcTo, uint256[3] _encryptedData) onlyOwner public returns (bool) {\r\n        // The central bank cannot mint to itself\r\n        require(_to != owner && _to != address(0));\r\n\r\n        // We check that the PC has been proven positive\r\n        require(positiveBalances[_pcTo]);\r\n\r\n        // Get next id and send PC to beneficiary\r\n        uint256 id = counters[_to]++;\r\n        committedBalances[_to][id] = _pcTo;\r\n        emit Transfer(owner, _to, _pcTo, id, _encryptedData);\r\n\r\n        // Increase total supply\r\n        totalSupply = totalSupply.decompress().add(_pcTo.decompress()).compress();\r\n\r\n        return true;\r\n    }\r\n\r\n    /**\r\n    * @dev register a new user by storing his public key. This is necessary to decrypt encrypted data\r\n    * @param _pubKey The public key\r\n    * @return A boolean that indicates if the operation was successful.\r\n    */\r\n    function register(uint256[2] _pubKey) public returns (bool) {\r\n        require(_pubKey[0] != 0 && _pubKey[1] != 0);\r\n\r\n        publicKeys[msg.sender] = _pubKey;\r\n        emit Registration(msg.sender, _pubKey);\r\n        return true;\r\n    }\r\n\r\n    /**\r\n    * @dev transfer token to a specified address. All PCs must have been proved to be positive.\r\n    * @param _to The address to transfer to.\r\n    * @param _pcTo Pedersen commitment for amount to transfer.\r\n    * @param _pcRemaining Pedersen commitment for amount remaining.\r\n    * @param _utxoIds List of UTxOs IDs\r\n    * @param _encryptedData Encrypted data that should contain (value, blinding factor, iv) for each output\r\n    */\r\n    function transfer(\r\n        address _to,\r\n        uint256 _pcTo,\r\n        uint256 _pcRemaining,\r\n        uint256[] _utxoIds,\r\n        uint256[6] _encryptedData) commitmentsAreProven([_pcTo, _pcRemaining]) public returns (bool success) {\r\n    \r\n        // Central bank cannot transfer or receive tokens, only mint them for others\r\n        require(msg.sender != owner && _to != owner && _to != address(0));\r\n        success = internalTransfer(_to, _pcTo, _pcRemaining, _utxoIds, _encryptedData);\r\n    }\r\n\r\n    /**\r\n    * @dev withdraw tokens. All PCs must have been proved to be positive. A withdraw is basically a transfer to the central bank\r\n    * @param _pcWithdraw Pedersen commitment for amount to withdraw.\r\n    * @param _pcRemaining Pedersen commitment for amount remaining.\r\n    * @param _utxoIds List of UTxOs IDs\r\n    * @param _encryptedData Encrypted data that should contain (value, blinding factor, iv) for each output\r\n    */\r\n    function withdraw(\r\n        uint256 _pcWithdraw,\r\n        uint256 _pcRemaining,\r\n        uint256[] _utxoIds,\r\n        uint256[6] _encryptedData) commitmentsAreProven([_pcWithdraw, _pcRemaining]) public returns (bool success) {\r\n\r\n        // Central bank cannot withdraw tokens because it should never have tokens in the first place.\r\n        require(msg.sender != owner);\r\n        success = internalTransfer(owner, _pcWithdraw, _pcRemaining, _utxoIds, _encryptedData);\r\n    }\r\n\r\n    /**\r\n    * @dev burn tokens.\r\n    * @param _utxoIds List of UTxOs IDs to burn\r\n    */\r\n    function burn(uint256[] _utxoIds) onlyOwner public returns (bool) {\r\n        if (_utxoIds.length == 0) return true;\r\n\r\n        uint256 id;\r\n        uint256 i = 0;\r\n        for (i = 0; i < _utxoIds.length; i++) {\r\n            id = _utxoIds[i];\r\n            committedBalances[owner][id] = 0;\r\n        }\r\n\r\n        emit OutputsSpent(owner, _utxoIds);\r\n        return true;\r\n    }\r\n\r\n    /**\r\n    * @dev verifies a specific multi range proof (bulletproof)\r\n    */\r\n    function verifyPCRangeProof(\r\n        uint256[] _commitments,\r\n        uint256[8] _coords,\r\n        uint256[5] _scalars,\r\n        uint256[2*n] _lsCoords,\r\n        uint256[2*n] _rsCoords) public returns (bool) {\r\n\r\n        require(bulletproofVerifier.verify(_commitments, _coords, _scalars, _lsCoords, _rsCoords));\r\n\r\n        uint256 numOfCommitments = _commitments.length / 2;\r\n        alt_bn128.G1Point[] memory input = new alt_bn128.G1Point[](numOfCommitments);\r\n    \r\n        uint256 i = 0;\r\n        for (i = 0; i < numOfCommitments; i++) {\r\n            input[i] = alt_bn128.G1Point(_commitments[2*i], _commitments[2*i + 1]);\r\n            positiveBalances[input[i].compress()] = true;\r\n            emit PCRangeProven(msg.sender, input[i].compress());\r\n        }\r\n\r\n        return true;\r\n    }\r\n\r\n    /* --- Internal functions --- */\r\n\r\n    /**\r\n    * @dev Effectively processes the transfer\r\n    */\r\n    function internalTransfer(\r\n        address _to,\r\n        uint256 _pcTo,\r\n        uint256 _pcRemaining,\r\n        uint256[] _utxoIds,\r\n        uint256[6] _encryptedData) internal returns (bool) {\r\n\r\n        require(validateTx(_pcTo, _pcRemaining, _utxoIds));\r\n\r\n        // Everything is okay, process transactions\r\n        UTXO.Output[] memory outputs = UTXO.createOutputs(_to, _pcTo, _pcRemaining, _encryptedData);\r\n        require(processTx(outputs));\r\n        emit OutputsSpent(msg.sender, _utxoIds);\r\n\r\n        return true;\r\n    }\r\n\r\n    /**\r\n    * @dev fetches Pedersen Commitments to use as inputs and create a compiled array\r\n    * @param _idx List of indexes to use as inputs\r\n    */\r\n    function fetchInputCommitments(uint256[] _idx) internal returns (alt_bn128.G1Point sumInputs) {\r\n        require(_idx.length > 0);\r\n        \r\n        uint256 currPC;    \r\n        uint256 i;\r\n        for (i = 0; i < _idx.length; i++) {\r\n            currPC = committedBalances[msg.sender][_idx[i]];\r\n            require(currPC != 0);\r\n      \r\n            sumInputs = sumInputs.add(currPC.decompress());\r\n      \r\n            // Mark Input as spent by changing its value to 0\r\n            committedBalances[msg.sender][_idx[i]] = 0;\r\n        }\r\n    }\r\n\r\n    /**\r\n    * @dev Creates new outputs for specific users\r\n    * @param _outputs List of outputs to process\r\n    */\r\n    function processTx(UTXO.Output[] _outputs) internal returns (bool) {\r\n        uint256 i;\r\n        for (i = 0; i < _outputs.length; i++) {\r\n            address to = _outputs[i].to;\r\n            uint256 id = counters[to]++;\r\n            uint256 pc = _outputs[i].pc.compress();\r\n            committedBalances[to][id] = pc;\r\n\r\n            emit Transfer(msg.sender, to, pc, id, _outputs[i].encryptedData);\r\n        }\r\n\r\n        return true;\r\n    }\r\n\r\n    /**\r\n    * @dev Validates a transaction\r\n    * @param _pcTo Pedersen commitment of the transferred amount \r\n    * @param _pcRemaining Pedersen commitment of the remaining amount\r\n    * @param _utxoIds List of UTXOs IDS\r\n    */\r\n    function validateTx(uint256 _pcTo, uint256 _pcRemaining, uint256[] _utxoIds) internal returns (bool success) {\r\n        // Sum inputs and outputs and invalidate spent inputs\r\n        alt_bn128.G1Point memory sumInputs = fetchInputCommitments(_utxoIds);\r\n        alt_bn128.G1Point memory sumOutputs = _pcTo.decompress().add(_pcRemaining.decompress());\r\n\r\n        // Check transaction validity\r\n        success = (sumInputs.X == sumOutputs.X && sumInputs.Y == sumOutputs.Y);\r\n    }\r\n}\r\n",
  "sourcePath": "C:\\Users\\dva\\Documents\\Development\\ELCA\\confidential-transactions-smart-contracts\\contracts\\CTToken.sol",
  "compiler": {
    "name": "solc",
    "version": "0.4.24+commit.e67f0147.Emscripten.clang"
  },
  "schemaVersion": "2.0.1",
  "updatedAt": "2018-07-16T15:52:16.349Z"
}