{
  "contractName": "InnerProductVerifier",
  "abi": [
    {
      "constant": true,
      "inputs": [],
      "name": "n",
      "outputs": [
        {
          "name": "",
          "type": "uint256"
        }
      ],
      "payable": false,
      "stateMutability": "view",
      "type": "function"
    },
    {
      "constant": true,
      "inputs": [],
      "name": "publicParameters",
      "outputs": [
        {
          "name": "",
          "type": "address"
        }
      ],
      "payable": false,
      "stateMutability": "view",
      "type": "function"
    },
    {
      "constant": true,
      "inputs": [],
      "name": "m",
      "outputs": [
        {
          "name": "",
          "type": "uint256"
        }
      ],
      "payable": false,
      "stateMutability": "view",
      "type": "function"
    },
    {
      "inputs": [
        {
          "name": "_publicParameters",
          "type": "address"
        }
      ],
      "payable": false,
      "stateMutability": "nonpayable",
      "type": "constructor"
    },
    {
      "anonymous": false,
      "inputs": [
        {
          "indexed": false,
          "name": "a",
          "type": "uint256"
        },
        {
          "indexed": false,
          "name": "b",
          "type": "uint256"
        },
        {
          "indexed": false,
          "name": "c",
          "type": "uint256"
        }
      ],
      "name": "DebugEvent",
      "type": "event"
    },
    {
      "constant": true,
      "inputs": [
        {
          "name": "c_x",
          "type": "uint256"
        },
        {
          "name": "c_y",
          "type": "uint256"
        },
        {
          "name": "ls",
          "type": "uint256[8]"
        },
        {
          "name": "rs",
          "type": "uint256[8]"
        },
        {
          "name": "A",
          "type": "uint256"
        },
        {
          "name": "B",
          "type": "uint256"
        }
      ],
      "name": "verify",
      "outputs": [
        {
          "name": "",
          "type": "bool"
        }
      ],
      "payable": false,
      "stateMutability": "view",
      "type": "function"
    },
    {
      "constant": true,
      "inputs": [
        {
          "components": [
            {
              "name": "X",
              "type": "uint256"
            },
            {
              "name": "Y",
              "type": "uint256"
            }
          ],
          "name": "c",
          "type": "tuple"
        },
        {
          "name": "ls",
          "type": "uint256[8]"
        },
        {
          "name": "rs",
          "type": "uint256[8]"
        },
        {
          "name": "A",
          "type": "uint256"
        },
        {
          "name": "B",
          "type": "uint256"
        },
        {
          "components": [
            {
              "name": "X",
              "type": "uint256"
            },
            {
              "name": "Y",
              "type": "uint256"
            }
          ],
          "name": "gs",
          "type": "tuple[16]"
        },
        {
          "components": [
            {
              "name": "X",
              "type": "uint256"
            },
            {
              "name": "Y",
              "type": "uint256"
            }
          ],
          "name": "hs",
          "type": "tuple[16]"
        },
        {
          "components": [
            {
              "name": "X",
              "type": "uint256"
            },
            {
              "name": "Y",
              "type": "uint256"
            }
          ],
          "name": "H",
          "type": "tuple"
        }
      ],
      "name": "verifyWithCustomParams",
      "outputs": [
        {
          "name": "",
          "type": "bool"
        }
      ],
      "payable": false,
      "stateMutability": "view",
      "type": "function"
    }
  ],
  "bytecode": "0x60806040523480156200001157600080fd5b50604051602080620011168339810180604052620000339190810190620001e7565b600160a060020a03811615156200004957600080fd5b60008054600160a060020a031916600160a060020a0383811691909117808355604080517f5a2ee01900000000000000000000000000000000000000000000000000000000815290519190921692635a2ee01992600480820193602093909283900390910190829087803b158015620000c157600080fd5b505af1158015620000d6573d6000803e3d6000fd5b505050506040513d601f19601f82011682018060405250620000fc919081019062000210565b6010146200010957600080fd5b6000809054906101000a9004600160a060020a0316600160a060020a0316632e52d6066040518163ffffffff167c0100000000000000000000000000000000000000000000000000000000028152600401602060405180830381600087803b1580156200017557600080fd5b505af11580156200018a573d6000803e3d6000fd5b505050506040513d601f19601f82011682018060405250620001b0919081019062000210565b600414620001bd57600080fd5b5062000240565b6000620001d2825162000231565b9392505050565b6000620001d282516200023d565b600060208284031215620001fa57600080fd5b6000620002088484620001c4565b949350505050565b6000602082840312156200022357600080fd5b6000620002088484620001d9565b600160a060020a031690565b90565b610ec680620002506000396000f3006080604052600436106100535763ffffffff60e060020a60003504166309dae06081146100585780632e52d6061461008e5780632fe6b34d146100b057806357bac812146100d25780635a2ee019146100f2575b600080fd5b34801561006457600080fd5b50610078610073366004610c96565b610107565b6040516100859190610df8565b60405180910390f35b34801561009a57600080fd5b506100a36104d4565b6040516100859190610e1a565b3480156100bc57600080fd5b506100c56104d9565b6040516100859190610e0c565b3480156100de57600080fd5b506100786100ed366004610d4c565b6104e8565b3480156100fe57600080fd5b506100a36106af565b600061011161091d565b604081018a9052600080805b60048310156102b55760408051808201909152808d600286026008811061014057fe5b602002015181526020018d8560020260010160088110151561015e57fe5b60200201519052606085015260408051808201909152808c600286026008811061018457fe5b602002015181526020018c856002026001016008811015156101a257fe5b6020908102919091015190915260808087018390526060808801518051908401516040808b015180519087015188519888015183519586529785019390935283820152928201529182019390935260a081019190915290519081900360c001902061020c906106b4565b60a0850181905261021c906106da565b60c08501819052604085015161028b9161027f9061025590610244908063ffffffff61078616565b60808901519063ffffffff6107b716565b60a088015161027f9061026e908063ffffffff61078616565b60608a01519063ffffffff6107b716565b9063ffffffff61081d16565b604085015260a084015160e085015184600481106102a557fe5b602002015260019092019161011d565b60e08401515161010085015152600192505b60048310156103165760e08401516103039084600481106102e457fe5b602002015161010086015160005b60200201519063ffffffff61078616565b61010085015152600192909201916102c7565b61010084015151610326906106da565b61010085015152600092505b600883101561040e57600091505b6010600283900a8401101561040357506101a0830151600282900a830190816010811061036957fe5b602002015115156103f85760e08401516103a59060038490036004811061038c57fe5b602002015160e08601516003859003600481106102f257fe5b6101c085018190526101008501516103c3919085601081106102f257fe5b61010085015182601081106103d457fe5b60200201526101a084015160019082601081106103ed57fe5b911515602090920201525b816001019150610340565b826001019250610332565b61041d84610100015189610864565b61012085015261010084015161043390886108d8565b6101408501526104498a8a63ffffffff61078616565b61016085018190526104969061046690889063ffffffff6107b716565b61014086015161027f90610480908d63ffffffff6107b716565b61012088015161027f908f63ffffffff6107b716565b610180850181905260408501515190511480156104c3575083604001516020015184610180015160200151145b9d9c50505050505050505050505050565b600481565b600054600160a060020a031681565b60006106a4604080519081016040528089815260200188815250868686866000809054906101000a9004600160a060020a0316600160a060020a031662e71aaf6040518163ffffffff1660e060020a02815260040161040060405180830381600087803b15801561055857600080fd5b505af115801561056c573d6000803e3d6000fd5b505050506040513d601f19601f820116820180604052506105909190810190610c51565b6000809054906101000a9004600160a060020a0316600160a060020a031663e1db76d86040518163ffffffff1660e060020a02815260040161040060405180830381600087803b1580156105e357600080fd5b505af11580156105f7573d6000803e3d6000fd5b505050506040513d601f19601f8201168201806040525061061b9190810190610c51565b6000809054906101000a9004600160a060020a0316600160a060020a03166370a5d8616040518163ffffffff1660e060020a0281526004016040805180830381600087803b15801561066c57600080fd5b505af1158015610680573d6000803e3d6000fd5b505050506040513d601f19601f820116820180604052506100739190810190610c78565b979650505050505050565b601081565b7f30644e72e131a029b85045b68181585d2833e84879b9709143e1f593f0000001900690565b60007f30644e72e131a029b85045b68181585d2833e84879b9709143e1f593f0000001828280808080851515610713576000975061077a565b8686111561072a57868681151561072657fe5b0695505b600193508692508591505b811561076057818381151561074657fe5b949594048581029094039391928383029003919050610735565b600085121561077657846000038703975061077a565b8497505b50505050505050919050565b60007f30644e72e131a029b85045b68181585d2833e84879b9709143e1f593f00000018083850991505b5092915050565b6107bf6109d6565b6107c76109ed565b82600114156107d8578391506107b0565b82600214156107f2576107eb848561081d565b91506107b0565b83518152602080850151908201526040808201849052826060836007600019fa15156107b057600080fd5b6108256109d6565b61082d610a0c565b83518152602080850151818301528351604080840191909152908401516060830152826080836006600019fa15156107b057600080fd5b61086c6109d6565b600061088e84825b60200201518460005b60200201519063ffffffff6107b716565b9150600190505b60108110156107b0576108ce6108c18583601081106108b057fe5b602002015185846010811061087d57fe5b839063ffffffff61081d16565b9150600101610895565b6108e06109d6565b60006108ed84600f610874565b9150600190505b60108110156107b0576109136108c185600f849003601081106108b057fe5b91506001016108f4565b610ac060405190810160405280610932610a2b565b815260200161093f6109d6565b815260200161094c6109d6565b81526020016109596109d6565b81526020016109666109d6565b81526020016000815260200160008152602001610981610a0c565b815260200161098e610a5a565b815260200161099b6109d6565b81526020016109a86109d6565b8152602001600081526020016109bc6109d6565b81526020016109c9610a5a565b8152602001600081525090565b604080518082019091526000808252602082015290565b6060604051908101604052806003906020820280388339509192915050565b6080604051908101604052806004906020820280388339509192915050565b610400604051908101604052806010905b610a446109d6565b815260200190600190039081610a3c5790505090565b610200604051908101604052806010906020820280388339509192915050565b6000601f82018313610a8b57600080fd5b6010610a9e610a9982610e4f565b610e28565b91508183856040840282011115610ab457600080fd5b60005b83811015610ae25781610aca8882610bb0565b84525060209092019160409190910190600101610ab7565b5050505092915050565b6000601f82018313610afd57600080fd5b6010610b0b610a9982610e4f565b91508183856040840282011115610b2157600080fd5b60005b83811015610ae25781610b378882610bf7565b84525060209092019160409190910190600101610b24565b6000601f82018313610b6057600080fd5b6008610b6e610a9982610e4f565b91508183856020840282011115610b8457600080fd5b60005b83811015610ae25781610b9a8882610c32565b8452506020928301929190910190600101610b87565b600060408284031215610bc257600080fd5b610bcc6040610e28565b90506000610bda8484610c32565b8252506020610beb84848301610c32565b60208301525092915050565b600060408284031215610c0957600080fd5b610c136040610e28565b90506000610c218484610c45565b8252506020610beb84848301610c45565b6000610c3e8235610e7e565b9392505050565b6000610c3e8251610e7e565b60006104008284031215610c6457600080fd5b6000610c708484610aec565b949350505050565b600060408284031215610c8a57600080fd5b6000610c708484610bf7565b600080600080600080600080610ac0898b031215610cb357600080fd5b6000610cbf8b8b610bb0565b9850506040610cd08b828c01610b4f565b975050610140610ce28b828c01610b4f565b965050610240610cf48b828c01610c32565b955050610260610d068b828c01610c32565b945050610280610d188b828c01610a7a565b935050610680610d2a8b828c01610a7a565b925050610a80610d3c8b828c01610bb0565b9150509295985092959890939650565b6000806000806000806102808789031215610d6657600080fd5b6000610d728989610c32565b9650506020610d8389828a01610c32565b9550506040610d9489828a01610b4f565b945050610140610da689828a01610b4f565b935050610240610db889828a01610c32565b925050610260610dca89828a01610c32565b9150509295509295509295565b610de081610e79565b82525050565b610de081610e81565b610de081610e7e565b60208101610e068284610dd7565b92915050565b60208101610e068284610de6565b60208101610e068284610def565b60405181810167ffffffffffffffff81118282101715610e4757600080fd5b604052919050565b600067ffffffffffffffff821115610e6657600080fd5b5060200290565b600160a060020a031690565b151590565b90565b6000610e0682610e6d5600a265627a7a72305820197edce925794ee6050c71eda48c0e040b3af2798f582f14a8fd2f1f31b8c5ae6c6578706572696d656e74616cf50037",
  "source": "pragma solidity ^0.4.24;\r\npragma experimental ABIEncoderV2;\r\n\r\nimport \"./alt_bn128.sol\";\r\nimport \"./PublicParameters.sol\";\r\n\r\ncontract InnerProductVerifier {\r\n    using alt_bn128 for uint256;\r\n    using alt_bn128 for alt_bn128.G1Point;\r\n\r\n    event DebugEvent(uint256 a, uint256 b, uint256 c);\r\n\r\n    uint256 public constant m = 16;\r\n    uint256 public constant n = 4;\r\n\r\n    PublicParameters public publicParameters;\r\n\r\n    constructor(address _publicParameters) public {\r\n        require(_publicParameters != address(0));\r\n        publicParameters = PublicParameters(_publicParameters);\r\n        require(m == publicParameters.m());\r\n        require(n == publicParameters.n());\r\n    }\r\n\r\n    struct Board {\r\n        alt_bn128.G1Point[m] hs;\r\n        alt_bn128.G1Point H;\r\n        alt_bn128.G1Point c;\r\n        alt_bn128.G1Point l;\r\n        alt_bn128.G1Point r;\r\n        uint256 x;\r\n        uint256 xInv;\r\n        uint256[n] challenges;\r\n        uint256[m] otherExponents;\r\n        alt_bn128.G1Point g;\r\n        alt_bn128.G1Point h;\r\n        uint256 prod;\r\n        alt_bn128.G1Point cProof;\r\n        bool[m] bitSet;\r\n        uint256 z;\r\n    }\r\n\r\n    function verify(\r\n        uint256 c_x,\r\n        uint256 c_y,\r\n        uint256[2*n] ls,\r\n        // uint256[n] ls_y,\r\n        uint256[2*n] rs,\r\n        // uint256[n] rs_y,\r\n        uint256 A,\r\n        uint256 B\r\n    ) public\r\n    view \r\n    returns (bool) {\r\n        return verifyWithCustomParams(alt_bn128.G1Point(c_x, c_y), ls, rs, A, B, publicParameters.gs(), publicParameters.hs(), publicParameters.H());\r\n    }\r\n\r\n    function verifyWithCustomParams(\r\n        alt_bn128.G1Point c,\r\n        uint256[2*n] ls,\r\n        uint256[2*n] rs,\r\n        uint256 A,\r\n        uint256 B,\r\n        alt_bn128.G1Point[m] gs,\r\n        alt_bn128.G1Point[m] hs,\r\n        alt_bn128.G1Point H\r\n    ) public\r\n    view \r\n    returns (bool) {\r\n        Board memory b;\r\n        b.c = c;\r\n        for (uint256 i = 0; i < n; i++) {\r\n            b.l = alt_bn128.G1Point(ls[2*i], ls[2*i+1]);\r\n            b.r = alt_bn128.G1Point(rs[2*i], rs[2*i+1]);\r\n            b.x = uint256(keccak256(b.l.X, b.l.Y, b.c.X, b.c.Y, b.r.X, b.r.Y)).mod();\r\n            b.xInv = b.x.inv();\r\n            // b.c = b.l.mul(b.x.modExp(2))\r\n            //     .add(b.r.mul(b.xInv.modExp(2)))\r\n            //     .add(b.c);\r\n            b.c = b.l.mul(b.x.mul(b.x))\r\n                .add(b.r.mul(b.xInv.mul(b.xInv)))\r\n                .add(b.c);\r\n            b.challenges[i] = b.x;\r\n        }\r\n        b.otherExponents[0] = b.challenges[0];\r\n        for (i = 1; i < n; i++) {\r\n            b.otherExponents[0] = b.otherExponents[0].mul(b.challenges[i]);\r\n        }\r\n        b.otherExponents[0] = b.otherExponents[0].inv();\r\n        for (i = 0; i < m/2; ++i) {\r\n            for (uint256 j = 0; (uint256(1) << j) + i < m; ++j) {\r\n                uint256 i1 = i + (uint256(1) << j);\r\n                if (!b.bitSet[i1]) {\r\n                    b.z = b.challenges[n-1-j].mul(b.challenges[n-1-j]);\r\n                    b.otherExponents[i1] = b.otherExponents[i].mul(b.z);\r\n                    b.bitSet[i1] = true;\r\n                }\r\n            }\r\n        }\r\n        b.g = multiExp(b.otherExponents, gs); // 64*40000 gas\r\n        b.h = multiExpInversed(b.otherExponents, hs); //64*40000 gas\r\n        b.prod = A.mul(B);\r\n        b.cProof = b.g.mul(A)\r\n            .add(b.h.mul(B))\r\n            .add(H.mul(b.prod));\r\n        return b.cProof.X == b.c.X && b.cProof.Y == b.c.Y;\r\n    }\r\n\r\n    function multiExp(uint256[m] ss, alt_bn128.G1Point[m] gs) internal view returns (alt_bn128.G1Point g) {\r\n        g = gs[0].mul(ss[0]);\r\n        for (uint256 i = 1; i < m; i++) {\r\n            g = g.add(gs[i].mul(ss[i]));\r\n        }\r\n    }\r\n\r\n    function multiExpInversed(uint256[m] ss, alt_bn128.G1Point[m] hs) internal view returns (alt_bn128.G1Point h) {\r\n        h = hs[0].mul(ss[m-1]);\r\n        for (uint256 i = 1; i < m; i++) {\r\n            h = h.add(hs[i].mul(ss[m-1-i]));\r\n        }\r\n    }\r\n}\r\n",
  "sourcePath": "C:\\Users\\dva\\Documents\\Development\\ELCA\\confidential-transactions-smart-contracts\\contracts\\InnerProductVerifier.sol",
  "compiler": {
    "name": "solc",
    "version": "0.4.24+commit.e67f0147.Emscripten.clang"
  },
  "schemaVersion": "2.0.1",
  "updatedAt": "2018-07-16T15:52:16.329Z"
}