{
  "contractName": "Organization",
  "abi": [
    {
      "constant": true,
      "inputs": [],
      "name": "name",
      "outputs": [
        {
          "name": "",
          "type": "string"
        }
      ],
      "payable": false,
      "stateMutability": "view",
      "type": "function"
    },
    {
      "constant": true,
      "inputs": [
        {
          "name": "",
          "type": "uint256"
        }
      ],
      "name": "events",
      "outputs": [
        {
          "name": "name",
          "type": "string"
        },
        {
          "name": "openingTime",
          "type": "uint256"
        },
        {
          "name": "closingTime",
          "type": "uint256"
        }
      ],
      "payable": false,
      "stateMutability": "view",
      "type": "function"
    },
    {
      "constant": false,
      "inputs": [],
      "name": "renounceOwnership",
      "outputs": [],
      "payable": false,
      "stateMutability": "nonpayable",
      "type": "function"
    },
    {
      "constant": false,
      "inputs": [],
      "name": "destroy",
      "outputs": [],
      "payable": false,
      "stateMutability": "nonpayable",
      "type": "function"
    },
    {
      "constant": true,
      "inputs": [],
      "name": "owner",
      "outputs": [
        {
          "name": "",
          "type": "address"
        }
      ],
      "payable": false,
      "stateMutability": "view",
      "type": "function"
    },
    {
      "constant": false,
      "inputs": [
        {
          "name": "_newOwner",
          "type": "address"
        }
      ],
      "name": "transferOwnership",
      "outputs": [],
      "payable": false,
      "stateMutability": "nonpayable",
      "type": "function"
    },
    {
      "constant": false,
      "inputs": [
        {
          "name": "_recipient",
          "type": "address"
        }
      ],
      "name": "destroyAndSend",
      "outputs": [],
      "payable": false,
      "stateMutability": "nonpayable",
      "type": "function"
    },
    {
      "inputs": [
        {
          "name": "_name",
          "type": "string"
        }
      ],
      "payable": false,
      "stateMutability": "nonpayable",
      "type": "constructor"
    },
    {
      "anonymous": false,
      "inputs": [
        {
          "indexed": false,
          "name": "id",
          "type": "uint256"
        },
        {
          "indexed": false,
          "name": "isRegistered",
          "type": "bool"
        }
      ],
      "name": "EventAction",
      "type": "event"
    },
    {
      "anonymous": false,
      "inputs": [
        {
          "indexed": false,
          "name": "merchant",
          "type": "address"
        },
        {
          "indexed": false,
          "name": "isApproved",
          "type": "bool"
        }
      ],
      "name": "ApprovalAction",
      "type": "event"
    },
    {
      "anonymous": false,
      "inputs": [
        {
          "indexed": false,
          "name": "merchant",
          "type": "address"
        },
        {
          "indexed": false,
          "name": "isRegistered",
          "type": "bool"
        }
      ],
      "name": "MerchantAction",
      "type": "event"
    },
    {
      "anonymous": false,
      "inputs": [
        {
          "indexed": true,
          "name": "previousOwner",
          "type": "address"
        }
      ],
      "name": "OwnershipRenounced",
      "type": "event"
    },
    {
      "anonymous": false,
      "inputs": [
        {
          "indexed": true,
          "name": "previousOwner",
          "type": "address"
        },
        {
          "indexed": true,
          "name": "newOwner",
          "type": "address"
        }
      ],
      "name": "OwnershipTransferred",
      "type": "event"
    },
    {
      "constant": false,
      "inputs": [
        {
          "name": "_name",
          "type": "string"
        },
        {
          "name": "_openingTime",
          "type": "uint256"
        },
        {
          "name": "_closingTime",
          "type": "uint256"
        }
      ],
      "name": "registerEvent",
      "outputs": [
        {
          "name": "id",
          "type": "uint256"
        }
      ],
      "payable": false,
      "stateMutability": "nonpayable",
      "type": "function"
    },
    {
      "constant": false,
      "inputs": [
        {
          "name": "_eventID",
          "type": "uint256"
        }
      ],
      "name": "removeEvent",
      "outputs": [
        {
          "name": "",
          "type": "bool"
        }
      ],
      "payable": false,
      "stateMutability": "nonpayable",
      "type": "function"
    },
    {
      "constant": false,
      "inputs": [
        {
          "name": "_eventID",
          "type": "uint256"
        }
      ],
      "name": "approveRegistration",
      "outputs": [
        {
          "name": "",
          "type": "bool"
        }
      ],
      "payable": false,
      "stateMutability": "nonpayable",
      "type": "function"
    },
    {
      "constant": false,
      "inputs": [
        {
          "name": "_eventID",
          "type": "uint256"
        }
      ],
      "name": "removeRegistrationApproval",
      "outputs": [
        {
          "name": "",
          "type": "bool"
        }
      ],
      "payable": false,
      "stateMutability": "nonpayable",
      "type": "function"
    },
    {
      "constant": false,
      "inputs": [
        {
          "name": "_eventID",
          "type": "uint256"
        },
        {
          "name": "_merchantAddress",
          "type": "address"
        }
      ],
      "name": "registerMerchant",
      "outputs": [
        {
          "name": "",
          "type": "bool"
        }
      ],
      "payable": false,
      "stateMutability": "nonpayable",
      "type": "function"
    },
    {
      "constant": false,
      "inputs": [
        {
          "name": "_eventID",
          "type": "uint256"
        },
        {
          "name": "_merchantAddress",
          "type": "address"
        }
      ],
      "name": "removeMerchant",
      "outputs": [
        {
          "name": "",
          "type": "bool"
        }
      ],
      "payable": false,
      "stateMutability": "nonpayable",
      "type": "function"
    },
    {
      "constant": false,
      "inputs": [
        {
          "name": "_eventID",
          "type": "uint256"
        },
        {
          "name": "_name",
          "type": "string"
        },
        {
          "name": "_openingTime",
          "type": "uint256"
        },
        {
          "name": "_closingTime",
          "type": "uint256"
        }
      ],
      "name": "updateEvent",
      "outputs": [
        {
          "name": "",
          "type": "bool"
        }
      ],
      "payable": false,
      "stateMutability": "nonpayable",
      "type": "function"
    },
    {
      "constant": false,
      "inputs": [
        {
          "name": "_newOwner",
          "type": "address"
        }
      ],
      "name": "transferOwnershipDeep",
      "outputs": [],
      "payable": false,
      "stateMutability": "nonpayable",
      "type": "function"
    },
    {
      "constant": true,
      "inputs": [
        {
          "name": "_eventID",
          "type": "uint256"
        },
        {
          "name": "_merchant",
          "type": "address"
        }
      ],
      "name": "allowanceRegistration",
      "outputs": [
        {
          "name": "",
          "type": "bool"
        }
      ],
      "payable": false,
      "stateMutability": "view",
      "type": "function"
    },
    {
      "constant": true,
      "inputs": [
        {
          "name": "_eventID",
          "type": "uint256"
        },
        {
          "name": "_merchantAddress",
          "type": "address"
        }
      ],
      "name": "isMerchantRegistered",
      "outputs": [
        {
          "name": "",
          "type": "bool"
        }
      ],
      "payable": false,
      "stateMutability": "view",
      "type": "function"
    },
    {
      "constant": true,
      "inputs": [],
      "name": "numEvents",
      "outputs": [
        {
          "name": "",
          "type": "uint256"
        }
      ],
      "payable": false,
      "stateMutability": "view",
      "type": "function"
    }
  ],
  "bytecode": "0x608060405234801561001057600080fd5b506040516110bb3803806110bb83398101604052805160008054600160a060020a0319163317905501805161004c906001906020840190610053565b50506100ee565b828054600181600116156101000203166002900490600052602060002090601f016020900481019282601f1061009457805160ff19168380011785556100c1565b828001600101855582156100c1579182015b828111156100c15782518255916020019190600101906100a6565b506100cd9291506100d1565b5090565b6100eb91905b808211156100cd57600081556001016100d7565b90565b610fbe806100fd6000396000f3006080604052600436106100fb5763ffffffff7c010000000000000000000000000000000000000000000000000000000060003504166306fdde0381146101005780630b7914301461018a57806323fafbe8146102285780632445573014610254578063313b23261461027857806334cf562b1461029c5780634510f2a7146102c357806356164e1e146102db5780636b0b489b146102f3578063715018a6146103175780637f718faf1461032e57806383197ef01461034f5780638da5cb5b1461036457806397597b3414610395578063a0ca1a06146103f7578063a77d56391461041b578063f2fde38b14610482578063f5074f41146104a3575b600080fd5b34801561010c57600080fd5b506101156104c4565b6040805160208082528351818301528351919283929083019185019080838360005b8381101561014f578181015183820152602001610137565b50505050905090810190601f16801561017c5780820380516001836020036101000a031916815260200191505b509250505060405180910390f35b34801561019657600080fd5b506101a2600435610551565b6040518080602001848152602001838152602001828103825285818151815260200191508051906020019080838360005b838110156101eb5781810151838201526020016101d3565b50505050905090810190601f1680156102185780820380516001836020036101000a031916815260200191505b5094505050505060405180910390f35b34801561023457600080fd5b5061024060043561060e565b604080519115158252519081900360200190f35b34801561026057600080fd5b50610240600435600160a060020a03602435166106a6565b34801561028457600080fd5b50610240600435600160a060020a03602435166106fc565b3480156102a857600080fd5b506102b16107aa565b60408051918252519081900360200190f35b3480156102cf57600080fd5b506102406004356107b1565b3480156102e757600080fd5b50610240600435610840565b3480156102ff57600080fd5b50610240600435600160a060020a0360243516610997565b34801561032357600080fd5b5061032c610a75565b005b34801561033a57600080fd5b5061032c600160a060020a0360043516610ae1565b34801561035b57600080fd5b5061032c610b8c565b34801561037057600080fd5b50610379610bb1565b60408051600160a060020a039092168252519081900360200190f35b3480156103a157600080fd5b506040805160206004803580820135601f81018490048402850184019095528484526102b1943694929360249392840191908190840183828082843750949750508435955050506020909201359150610bc09050565b34801561040357600080fd5b50610240600435600160a060020a0360243516610cc9565b34801561042757600080fd5b5060408051602060046024803582810135601f8101859004850286018501909652858552610240958335953695604494919390910191908190840183828082843750949750508435955050506020909201359150610d249050565b34801561048e57600080fd5b5061032c600160a060020a0360043516610d99565b3480156104af57600080fd5b5061032c600160a060020a0360043516610dbc565b60018054604080516020600284861615610100026000190190941693909304601f810184900484028201840190925281815292918301828280156105495780601f1061051e57610100808354040283529160200191610549565b820191906000526020600020905b81548152906001019060200180831161052c57829003601f168201915b505050505081565b600280548290811061055f57fe5b60009182526020918290206005919091020180546040805160026001841615610100026000190190931692909204601f8101859004850283018501909152808252919350918391908301828280156105f85780601f106105cd576101008083540402835291602001916105f8565b820191906000526020600020905b8154815290600101906020018083116105db57829003601f168201915b5050505050908060010154908060020154905083565b60025460009081908390811061062357600080fd5b600280548590811061063157fe5b6000918252602080832033808552600460059094029091019283018252604093849020805460ff1916600190811790915584519182529181019190915282519194507fdb99883c718ddb71f4a3ce7c304bbc851737f4c5e09e22eeaa8ed58019f4f13092908290030190a15060019392505050565b600254600090839081106106b957600080fd5b60028054859081106106c757fe5b60009182526020808320600160a060020a03871684526003600590930201919091019052604090205460ff1691505092915050565b600080548190600160a060020a0316331461071657600080fd5b6002548490811061072657600080fd5b600280548690811061073457fe5b60009182526020808320600160a060020a038816808552600593909302016003810182526040808520805460ff1916905580519384529183019390935280519294507f92eb85fab0be9088e11b128a93b2135375dfa549eaa1c6703005af53977cfc7292918290030190a1506001949350505050565b6002545b90565b6002546000908190839081106107c657600080fd5b60028054859081106107d457fe5b6000918252602080832033808552600593909302016004810182526040808520805460ff1916905580519384529183019390935280519294507fdb99883c718ddb71f4a3ce7c304bbc851737f4c5e09e22eeaa8ed58019f4f13092918290030190a15060019392505050565b600080548190600160a060020a0316331461085a57600080fd5b6002548390811061086a57600080fd5b8391505b6002546000190182101561090457600280546001840190811061088d57fe5b90600052602060002090600502016002838154811015156108aa57fe5b9060005260206000209060050201600082018160000190805460018160011615610100020316600290046108df929190610ddf565b506001820154816001015560028201548160020155905050818060010192505061086e565b60028054600019810190811061091657fe5b600091825260208220600590910201906109308282610e64565b50600060018201819055600291820155805490610951906000198301610ea8565b50604080518581526000602082015281517fd76621a6d2b899514e327677785780f5bc655d0459c1586f33b25f1e39ad67ad929181900390910190a15060019392505050565b600080548190600160a060020a031633146109b157600080fd5b600254849081106109c157600080fd5b60028054869081106109cf57fe5b60009182526020808320600160a060020a03881684526004600590930201918201905260409091205490925060ff161515610a0957600080fd5b600160a060020a0384166000818152600384016020908152604091829020805460ff1916600190811790915582519384529083015280517f92eb85fab0be9088e11b128a93b2135375dfa549eaa1c6703005af53977cfc729281900390910190a1506001949350505050565b600054600160a060020a03163314610a8c57600080fd5b60008054604051600160a060020a03909116917ff8df31144d9c2f0f6b59d69b8b98abd5459d07f2742c4df920b25aae33c6482091a26000805473ffffffffffffffffffffffffffffffffffffffff19169055565b600054600160a060020a0316331480610b045750600054600160a060020a031632145b1515610b0f57600080fd5b600160a060020a0381161515610b2457600080fd5b60008054604051600160a060020a03808516939216917f8be0079c531659141344cd1fd0a4f28419497f9722a3daafe3b4186f6b6457e091a36000805473ffffffffffffffffffffffffffffffffffffffff1916600160a060020a0392909216919091179055565b600054600160a060020a03163314610ba357600080fd5b600054600160a060020a0316ff5b600054600160a060020a031681565b60008054600160a060020a03163314610bd857600080fd5b42831015610be557600080fd5b8282101580610bf2575081155b1515610bfd57600080fd5b6002805490610c0f9060018301610ea8565b905060606040519081016040528085815260200184815260200183815250600282815481101515610c3c57fe5b90600052602060002090600502016000820151816000019080519060200190610c66929190610ed9565b5060208201518160010155604082015181600201559050507fd76621a6d2b899514e327677785780f5bc655d0459c1586f33b25f1e39ad67ad81600160405180838152602001821515151581526020019250505060405180910390a19392505050565b600254600090819084908110610cde57600080fd5b6002805486908110610cec57fe5b60009182526020808320600160a060020a03881684526004600590930201918201905260409091205460ff1693509150505092915050565b600080548190600160a060020a03163314610d3e57600080fd5b60025486908110610d4e57600080fd5b6002805488908110610d5c57fe5b600091825260209182902088516005909202019350610d8091849190890190610ed9565b5050600181810194909455600201919091555092915050565b600054600160a060020a03163314610db057600080fd5b610db981610b0f565b50565b600054600160a060020a03163314610dd357600080fd5b80600160a060020a0316ff5b828054600181600116156101000203166002900490600052602060002090601f016020900481019282601f10610e185780548555610e54565b82800160010185558215610e5457600052602060002091601f016020900482015b82811115610e54578254825591600101919060010190610e39565b50610e60929150610f47565b5090565b50805460018160011615610100020316600290046000825580601f10610e8a5750610db9565b601f016020900490600052602060002090810190610db99190610f47565b815481835581811115610ed457600502816005028360005260206000209182019101610ed49190610f61565b505050565b828054600181600116156101000203166002900490600052602060002090601f016020900481019282601f10610f1a57805160ff1916838001178555610e54565b82800160010185558215610e54579182015b82811115610e54578251825591602001919060010190610f2c565b6107ae91905b80821115610e605760008155600101610f4d565b6107ae91905b80821115610e60576000610f7b8282610e64565b506000600182018190556002820155600501610f675600a165627a7a723058203164d0f457cd492aa1e5117cb594bb3f27ff02200f88f2b3de0c1c333717c4a60029",
  "source": "pragma solidity ^0.4.22;\r\n\r\nimport \"openzeppelin-solidity/contracts/math/SafeMath.sol\";\r\nimport \"openzeppelin-solidity/contracts/lifecycle/Destructible.sol\";\r\n\r\ncontract Organization is Destructible {\r\n  using SafeMath for uint;\r\n\r\n  /* --- Structures and variables --- */\r\n  struct Event {\r\n    string name;\r\n    uint openingTime;\r\n    uint closingTime;\r\n    mapping (address => bool) merchants;\r\n    mapping (address => bool) allowedToRegister;\r\n  }\r\n\r\n  string public name;\r\n  Event[] public events;\r\n\r\n  /* --- Events --- */\r\n  event EventAction(uint id, bool isRegistered);\r\n  event ApprovalAction(address merchant, bool isApproved);\r\n  event MerchantAction(address merchant, bool isRegistered);\r\n\r\n  /* --- Modifiers --- */\r\n\r\n  /**\r\n  * @dev Reverts if not in event time range.\r\n  */\r\n  modifier isInRange(uint _eventID) {\r\n    require(_eventID < events.length);\r\n    _;\r\n  }\r\n\r\n  /**\r\n  * @dev Reverts if event is not open\r\n  */\r\n  modifier onlyWhileOpen(uint _eventID) {\r\n    Event storage mEvent = events[_eventID];\r\n    require(now >= mEvent.openingTime && now <= mEvent.closingTime || mEvent.closingTime == 0);\r\n    _;\r\n  }\r\n\r\n  /**\r\n   * @dev Throws if called by any account other than the owner.\r\n   */\r\n  modifier onlyOwnerOrOrigin() {\r\n    // TODO: modify to require(msg.sender == consortium.address && tx.origin == owner) once this is in production\r\n    require(msg.sender == owner || tx.origin == owner);\r\n    _;\r\n  }\r\n\r\n  /* --- Public functions --- */\r\n\r\n  /**\r\n   * Organization constructor\r\n   */\r\n  constructor(string _name) public {\r\n    name = _name;\r\n  }\r\n\r\n  /**\r\n   * Registers a new Event\r\n   * @param _name uint Event name\r\n   * @param _openingTime uint Event Opening time\r\n   * @param _closingTime uint Event Closing time, can be 0 if event is continuous\r\n   * @return An uint specifying the event ID\r\n   */\r\n  function registerEvent(string _name, uint _openingTime, uint _closingTime) onlyOwner public returns(uint id) {\r\n    require(_openingTime >= now);\r\n    require(_closingTime >= _openingTime || _closingTime == 0); // Closing time is 0 if the event is continuous\r\n\r\n    id = events.length++;\r\n    events[id] = Event(_name, _openingTime, _closingTime);\r\n    emit EventAction(id, true);\r\n  }\r\n\r\n  /**\r\n   * Removes an event\r\n   * @param _eventID uint Event ID to delete\r\n   * @return A boolean specifying if the event has been deleted\r\n   */\r\n  function removeEvent(uint _eventID) onlyOwner isInRange(_eventID) public returns(bool) {\r\n    for (uint i = _eventID; i < events.length-1; i++){\r\n        events[i] = events[i+1];\r\n    }\r\n\r\n    delete events[events.length-1];\r\n    events.length--;\r\n    emit EventAction(_eventID, false);\r\n    return true;\r\n  }\r\n\r\n  /**\r\n   * @dev Approve the merchant's to be added to the specified event.\r\n   * @param _eventID uint Event ID\r\n   */\r\n  function approveRegistration(uint _eventID) isInRange(_eventID) public returns (bool) {\r\n    Event storage mEvent = events[_eventID];\r\n    mEvent.allowedToRegister[msg.sender] = true;\r\n    emit ApprovalAction(msg.sender, true);\r\n    return true;\r\n  }\r\n\r\n  /**\r\n   * @dev Removes the approval of a merchant to be added to this event.\r\n   * @param _eventID uint Event ID\r\n   */\r\n  function removeRegistrationApproval(uint _eventID) isInRange(_eventID) public returns (bool) {\r\n    Event storage mEvent = events[_eventID];\r\n    mEvent.allowedToRegister[msg.sender] = false;\r\n    emit ApprovalAction(msg.sender, false);\r\n    return true;\r\n  }\r\n\r\n  /**\r\n   * @dev Adds a new merchant to the event only if the merchant has allowed being added.\r\n   * @param _eventID uint Event ID\r\n   * @param _merchantAddress address Merchant's address\r\n   */\r\n  function registerMerchant(uint _eventID, address _merchantAddress) onlyOwner isInRange(_eventID) public returns(bool) {\r\n    Event storage mEvent = events[_eventID];\r\n    require(mEvent.allowedToRegister[_merchantAddress]);\r\n    \r\n    mEvent.merchants[_merchantAddress] = true;\r\n    emit MerchantAction(_merchantAddress, true);\r\n    return true;\r\n  }\r\n\r\n  /**\r\n   * @dev Removes a merchant from the event.\r\n   * @param _eventID uint Event ID\r\n   * @param _merchantAddress address merchant's address\r\n   */\r\n  function removeMerchant(uint _eventID,  address _merchantAddress) onlyOwner isInRange(_eventID) public returns(bool) {\r\n    Event storage mEvent = events[_eventID];\r\n    mEvent.merchants[_merchantAddress] = false;\r\n    emit MerchantAction(_merchantAddress, false);\r\n    return true;\r\n  }\r\n\r\n  /**\r\n   * Updates an Event\r\n   * @param _name uint Event name\r\n   * @param _openingTime uint Event Opening time\r\n   * @param _closingTime uint Event Closing time, can be 0 if event is continuous\r\n   */\r\n  function updateEvent(uint _eventID, string _name, uint _openingTime, uint _closingTime) onlyOwner isInRange(_eventID) public returns (bool) {\r\n    Event storage mEvent = events[_eventID];\r\n    mEvent.name = _name;\r\n    mEvent.openingTime = _openingTime;\r\n    mEvent.closingTime = _closingTime;\r\n    return true;\r\n  }\r\n\r\n  /**\r\n   * @dev Allows the current owner to transfer control of the contract to a newOwner.\r\n   * @param _newOwner The address to transfer ownership to.\r\n   */\r\n  function transferOwnershipDeep(address _newOwner) onlyOwnerOrOrigin public {\r\n    require(_newOwner != address(0));\r\n    emit OwnershipTransferred(owner, _newOwner);\r\n    owner = _newOwner;\r\n  }\r\n\r\n  /**\r\n   * @dev Function to check if a merchant allows an event to register him\r\n   * @param _eventID uint Event ID\r\n   * @param _merchant address The address of the merchant.\r\n   * @return A boolean specifying if the merchant has approved\r\n   */\r\n  function allowanceRegistration(uint _eventID, address _merchant) isInRange(_eventID) public view returns (bool) {\r\n    Event storage mEvent = events[_eventID];\r\n    return mEvent.allowedToRegister[_merchant];\r\n  }\r\n\r\n  /**\r\n   * @dev Checks if a merchant is registered to the event.\r\n   * @param _eventID uint Event ID\r\n   * @param _merchantAddress address merchant's address\r\n   */\r\n  function isMerchantRegistered(uint _eventID, address _merchantAddress) isInRange(_eventID) public view returns(bool) {\r\n    return events[_eventID].merchants[_merchantAddress];\r\n  }\r\n\r\n  /**\r\n   * @dev Returns the number of events created\r\n   */\r\n  function numEvents() public view returns (uint) {\r\n    return events.length;\r\n  }\r\n}\r\n",
  "sourcePath": "C:\\Users\\dva\\Documents\\Development\\ELCA\\confidential-transactions-smart-contracts\\contracts\\Organization.sol",
  "compiler": {
    "name": "solc",
    "version": "0.4.24+commit.e67f0147.Emscripten.clang"
  },
  "schemaVersion": "2.0.1",
  "updatedAt": "2018-07-16T15:33:02.991Z"
}