{
  "contractName": "PublicParameters",
  "abi": [
    {
      "constant": true,
      "inputs": [
        {
          "name": "",
          "type": "uint256"
        }
      ],
      "name": "signatureGenerator",
      "outputs": [
        {
          "name": "",
          "type": "uint256"
        }
      ],
      "payable": false,
      "stateMutability": "view",
      "type": "function"
    },
    {
      "constant": true,
      "inputs": [
        {
          "name": "",
          "type": "uint256"
        }
      ],
      "name": "baseG",
      "outputs": [
        {
          "name": "",
          "type": "uint256"
        }
      ],
      "payable": false,
      "stateMutability": "view",
      "type": "function"
    },
    {
      "constant": true,
      "inputs": [
        {
          "name": "",
          "type": "uint256"
        }
      ],
      "name": "baseH",
      "outputs": [
        {
          "name": "",
          "type": "uint256"
        }
      ],
      "payable": false,
      "stateMutability": "view",
      "type": "function"
    },
    {
      "constant": true,
      "inputs": [
        {
          "name": "",
          "type": "uint256"
        }
      ],
      "name": "gVector",
      "outputs": [
        {
          "name": "",
          "type": "uint256"
        }
      ],
      "payable": false,
      "stateMutability": "view",
      "type": "function"
    },
    {
      "constant": true,
      "inputs": [],
      "name": "lastGcreated",
      "outputs": [
        {
          "name": "",
          "type": "uint256"
        }
      ],
      "payable": false,
      "stateMutability": "view",
      "type": "function"
    },
    {
      "constant": true,
      "inputs": [],
      "name": "n",
      "outputs": [
        {
          "name": "",
          "type": "uint256"
        }
      ],
      "payable": false,
      "stateMutability": "view",
      "type": "function"
    },
    {
      "constant": true,
      "inputs": [
        {
          "name": "",
          "type": "uint256"
        }
      ],
      "name": "hVector",
      "outputs": [
        {
          "name": "",
          "type": "uint256"
        }
      ],
      "payable": false,
      "stateMutability": "view",
      "type": "function"
    },
    {
      "constant": true,
      "inputs": [],
      "name": "m",
      "outputs": [
        {
          "name": "",
          "type": "uint256"
        }
      ],
      "payable": false,
      "stateMutability": "view",
      "type": "function"
    },
    {
      "constant": true,
      "inputs": [],
      "name": "lastHcreated",
      "outputs": [
        {
          "name": "",
          "type": "uint256"
        }
      ],
      "payable": false,
      "stateMutability": "view",
      "type": "function"
    },
    {
      "inputs": [],
      "payable": false,
      "stateMutability": "nonpayable",
      "type": "constructor"
    },
    {
      "anonymous": false,
      "inputs": [
        {
          "indexed": false,
          "name": "_i",
          "type": "uint256"
        }
      ],
      "name": "VectorCreated",
      "type": "event"
    },
    {
      "constant": false,
      "inputs": [],
      "name": "createGVector",
      "outputs": [
        {
          "name": "success",
          "type": "bool"
        }
      ],
      "payable": false,
      "stateMutability": "nonpayable",
      "type": "function"
    },
    {
      "constant": false,
      "inputs": [],
      "name": "createHVector",
      "outputs": [
        {
          "name": "success",
          "type": "bool"
        }
      ],
      "payable": false,
      "stateMutability": "nonpayable",
      "type": "function"
    },
    {
      "constant": true,
      "inputs": [],
      "name": "signaturePublicGenerator",
      "outputs": [
        {
          "name": "point",
          "type": "uint256[2]"
        }
      ],
      "payable": false,
      "stateMutability": "pure",
      "type": "function"
    },
    {
      "constant": true,
      "inputs": [],
      "name": "peddersenBaseG",
      "outputs": [
        {
          "name": "point",
          "type": "uint256[2]"
        }
      ],
      "payable": false,
      "stateMutability": "view",
      "type": "function"
    },
    {
      "constant": true,
      "inputs": [],
      "name": "peddersenBaseH",
      "outputs": [
        {
          "name": "point",
          "type": "uint256[2]"
        }
      ],
      "payable": false,
      "stateMutability": "view",
      "type": "function"
    },
    {
      "constant": true,
      "inputs": [
        {
          "name": "index",
          "type": "uint256"
        }
      ],
      "name": "getGVectorComponent",
      "outputs": [
        {
          "name": "point",
          "type": "uint256[2]"
        }
      ],
      "payable": false,
      "stateMutability": "view",
      "type": "function"
    },
    {
      "constant": true,
      "inputs": [
        {
          "name": "index",
          "type": "uint256"
        }
      ],
      "name": "getHVectorComponent",
      "outputs": [
        {
          "name": "point",
          "type": "uint256[2]"
        }
      ],
      "payable": false,
      "stateMutability": "view",
      "type": "function"
    },
    {
      "constant": true,
      "inputs": [],
      "name": "getGVector",
      "outputs": [
        {
          "name": "points",
          "type": "uint256[32]"
        }
      ],
      "payable": false,
      "stateMutability": "view",
      "type": "function"
    },
    {
      "constant": true,
      "inputs": [],
      "name": "getHVector",
      "outputs": [
        {
          "name": "points",
          "type": "uint256[32]"
        }
      ],
      "payable": false,
      "stateMutability": "view",
      "type": "function"
    },
    {
      "constant": true,
      "inputs": [],
      "name": "generator",
      "outputs": [
        {
          "components": [
            {
              "name": "X",
              "type": "uint256"
            },
            {
              "name": "Y",
              "type": "uint256"
            }
          ],
          "name": "p",
          "type": "tuple"
        }
      ],
      "payable": false,
      "stateMutability": "view",
      "type": "function"
    },
    {
      "constant": true,
      "inputs": [],
      "name": "G",
      "outputs": [
        {
          "components": [
            {
              "name": "X",
              "type": "uint256"
            },
            {
              "name": "Y",
              "type": "uint256"
            }
          ],
          "name": "p",
          "type": "tuple"
        }
      ],
      "payable": false,
      "stateMutability": "view",
      "type": "function"
    },
    {
      "constant": true,
      "inputs": [],
      "name": "H",
      "outputs": [
        {
          "components": [
            {
              "name": "X",
              "type": "uint256"
            },
            {
              "name": "Y",
              "type": "uint256"
            }
          ],
          "name": "p",
          "type": "tuple"
        }
      ],
      "payable": false,
      "stateMutability": "view",
      "type": "function"
    },
    {
      "constant": true,
      "inputs": [],
      "name": "gs",
      "outputs": [
        {
          "components": [
            {
              "name": "X",
              "type": "uint256"
            },
            {
              "name": "Y",
              "type": "uint256"
            }
          ],
          "name": "points",
          "type": "tuple[16]"
        }
      ],
      "payable": false,
      "stateMutability": "view",
      "type": "function"
    },
    {
      "constant": true,
      "inputs": [],
      "name": "hs",
      "outputs": [
        {
          "components": [
            {
              "name": "X",
              "type": "uint256"
            },
            {
              "name": "Y",
              "type": "uint256"
            }
          ],
          "name": "points",
          "type": "tuple[16]"
        }
      ],
      "payable": false,
      "stateMutability": "view",
      "type": "function"
    }
  ],
  "bytecode": "0x6080604052600060465560006047553480156200001b57600080fd5b506200002f6401000000006200008d810204565b6200003f906000906002620002be565b5062000053640100000000620000b1810204565b620000629060029081620002be565b506200007664010000000062000135810204565b62000086906004906002620002be565b506200038e565b6200009762000301565b506040805180820190915260018152600260208201525b90565b620000bb62000301565b6000620000c76200031c565b604080517f47000000000000000000000000000000000000000000000000000000000000008152905190819003600101902091506200011482640100000000620009ca6200019882021704565b60408051808201909152815181526020808301519082015293509050505090565b6200013f62000301565b60006200014b6200031c565b604080517f48000000000000000000000000000000000000000000000000000000000000008152905190819003600101902091506200011482640100000000620009ca6200019882021704565b620001a26200031c565b7f30644e72e131a029b85045b68181585d97816a916871ca8d3c208c16d87cfd47600019818406016000808060035b821515620002455760018501945085801515620001ea57fe5b858609915085801515620001fa57fe5b8583099150858015156200020a57fe5b81830891506200022b82600460018901048864010000000062000261810204565b935081868015156200023957fe5b858609149250620001d1565b5050604080518082019091529283525060208201529392505050565b60006200026d62000333565b6200027762000352565b602080835282810181905260408301819052606083018790526080830186905260a083018590528160c0846005600019fa1515620002b457600080fd5b5195945050505050565b8260028101928215620002ef579160200282015b82811115620002ef578251825591602001919060010190620002d2565b50620002fd92915062000371565b5090565b60408051808201825290600290829080388339509192915050565b604080518082019091526000808252602082015290565b60c0604051908101604052806006906020820280388339509192915050565b6020604051908101604052806001906020820280388339509192915050565b620000ae91905b80821115620002fd576000815560010162000378565b610f46806200039e6000396000f3006080604052600436106101315763ffffffff7c0100000000000000000000000000000000000000000000000000000000600035041662e71aaf8114610136578063058260ec1461016157806309440a301461018e578063095c2405146101ae5780630c00f8a0146101ce5780631ab5d609146101ee57806327cb3637146102035780632e52d6061461022557806334335b631461023a57806339774ff21461025c578063483767f01461027157806356e2736c146102935780635a2ee019146102b35780636a5ff853146102c85780636fecb623146102dd57806370a5d861146102ff5780637afa1eed146103145780638dd2a30b1461032957806393fb7ff31461033e578063bdb1482e1461035e578063e161f94d14610373578063e1db76d814610393578063ffe237f0146103a8575b600080fd5b34801561014257600080fd5b5061014b6103bd565b6040516101589190610e90565b60405180910390f35b34801561016d57600080fd5b5061018161017c366004610d5b565b610401565b6040516101589190610ede565b34801561019a57600080fd5b506101816101a9366004610d5b565b610415565b3480156101ba57600080fd5b506101816101c9366004610d5b565b610421565b3480156101da57600080fd5b506101816101e9366004610d5b565b61042e565b3480156101fa57600080fd5b5061018161043b565b34801561020f57600080fd5b50610218610441565b6040516101589190610ea5565b34801561023157600080fd5b506101816104b1565b34801561024657600080fd5b5061024f6104b6565b6040516101589190610ec2565b34801561026857600080fd5b50610218610551565b34801561027d57600080fd5b50610286610572565b6040516101589190610eb3565b34801561029f57600080fd5b506101816102ae366004610d5b565b6105ae565b3480156102bf57600080fd5b506101816105bb565b3480156102d457600080fd5b506102186105c0565b3480156102e957600080fd5b506102f261060f565b6040516101589190610ed0565b34801561030b57600080fd5b506102f261064b565b34801561032057600080fd5b506102f2610682565b34801561033557600080fd5b5061024f6106b9565b34801561034a57600080fd5b50610218610359366004610d5b565b61078c565b34801561036a57600080fd5b50610181610868565b34801561037f57600080fd5b5061021861038e366004610d5b565b61086e565b34801561039f57600080fd5b5061014b6108ea565b3480156103b457600080fd5b50610286610922565b6103c5610c89565b604080516104008101918290526103fc9160069060209082845b8154815260200190600101908083116103df575050505050610958565b905090565b6000816002811061040e57fe5b0154905081565b60028181811061040e57fe5b6004816002811061040e57fe5b6006816020811061040e57fe5b60465481565b610449610cb8565b6000610453610cd3565b604080517f4800000000000000000000000000000000000000000000000000000000000000815290519081900360010190209150610490826109ca565b60408051808201909152815181526020808301519082015293509050505090565b600481565b6000806104c1610cb8565b600060106047541015156104d457600080fd5b604754601003925060048311156104ea57600492505b506047545b826047540181101561053f576105048161078c565b80519092506026600283026020811061051957fe5b0155602080830151906026906002840260010190811061053557fe5b01556001016104ef565b60478054840190556001935050505090565b610559610cb8565b5060408051808201909152600181526002602082015290565b61057a610cea565b604080516104008101918290529060269060209082845b815481526020019060010190808311610591575050505050905090565b6026816020811061040e57fe5b601081565b6105c8610cb8565b60006105d2610cd3565b604080517f4700000000000000000000000000000000000000000000000000000000000000815290519081900360010190209150610490826109ca565b610617610cd3565b60408051808201918290526103fc91600290819081845b81548152602001906001019080831161062e575050505050610a87565b610653610cd3565b60408051808201918290526004805482526103fc9260029060056020850180831161062e575050505050610a87565b61068a610cd3565b60408051808201918290526000805482526103fc9260029060016020850180831161062e575050505050610a87565b6000806106c4610cb8565b600060106046541015156106d757600080fd5b604654601003925060048311156106ed57600492505b506046545b8260465401811015610742576107078161086e565b80519092506006600283026020811061071c57fe5b0155602080830151906006906002840260010190811061073857fe5b01556001016106f2565b604680548401908190556040517f648d8ada5ace0f2d44ad9ca05fbef0c2abcf4b155af5217c639eab8ba794838f9161077a91610ede565b60405180910390a16001935050505090565b610794610cb8565b600061079e610cd3565b601084106107ab57600080fd5b6107b484610aae565b6040517f480000000000000000000000000000000000000000000000000000000000000081528151600182019060208401908083835b602083106108095780518252601f1990920191602091820191016107ea565b6001836020036101000a0380198251168184511680821785525050505050509050019150506040518091039020915061084582600190046109ca565b604080518082019091528151815260208083015190820152935090505050919050565b60475481565b610876610cb8565b6000610880610cd3565b6010841061088d57600080fd5b61089684610aae565b6040517f47000000000000000000000000000000000000000000000000000000000000008152815160018201906020840190808383602083106108095780518252601f1990920191602091820191016107ea565b6108f2610c89565b604080516104008101918290526026805482526103fc9260209060278285018083116103df575050505050610958565b61092a610cea565b6040805161040081019182905260068054825290916020906007828501808311610591575050505050905090565b610960610c89565b60005b60108110156109c457604080518082019091528084600284026020811061098657fe5b6020020151815260200184836002026001016020811015156109a457fe5b602002015190528282601081106109b757fe5b6020020152600101610963565b50919050565b6109d2610cd3565b7f30644e72e131a029b85045b68181585d97816a916871ca8d3c208c16d87cfd47600019818406016000808060035b821515610a645760018501945085801515610a1857fe5b858609915085801515610a2757fe5b858309915085801515610a3657fe5b8183089150610a4c826004600189010488610c31565b93508186801515610a5957fe5b858609149250610a01565b60408051908101604052808681526020018581525096505b505050505050919050565b610a8f610cd3565b5060408051808201909152815181526020918201519181019190915290565b606060008181808080871515610af95760408051808201909152600181527f300000000000000000000000000000000000000000000000000000000000000060208201529650610a7c565b60408051606480825260a082019092529096508660208201610c8080388339019050509450600093508792505b8215610b875784516001850194600a8086049506935060f860020a6030850102918791908110610b5257fe5b9060200101907effffffffffffffffffffffffffffffffffffffffffffffffffffffffffffff1916908160001a905350610b26565b836040519080825280601f01601f191660200182016040528015610bb5578160200160208202803883390190505b509650600090505b83811015610a7c5784816001860303815181101515610bd857fe5b90602001015160f860020a900460f860020a028782815181101515610bf957fe5b9060200101907effffffffffffffffffffffffffffffffffffffffffffffffffffffffffffff1916908160001a905350600101610bbd565b6000610c3b610d0a565b610c43610d29565b602080835282810181905260408301819052606083018790526080830186905260a083018590528160c0846005600019fa1515610c7f57600080fd5b5195945050505050565b610400604051908101604052806010905b610ca2610cd3565b815260200190600190039081610c9a5790505090565b60408051808201825290600290829080388339509192915050565b604080518082019091526000808252602082015290565b610400604051908101604052806020906020820280388339509192915050565b60c0604051908101604052806006906020820280388339509192915050565b6020604051908101604052806001906020820280388339509192915050565b6000610d548235610eec565b9392505050565b600060208284031215610d6d57600080fd5b6000610d798484610d48565b949350505050565b610d8a81610eef565b610d9382610eec565b60005b82811015610dc357610da9858351610e5d565b610db282610f01565b604095909501949150600101610d96565b5050505050565b610dd381610ef5565b610ddc82610eec565b60005b82811015610dc357610df2858351610e87565b610dfb82610f01565b602095909501949150600101610ddf565b610e1581610efb565b610e1e82610eec565b60005b82811015610dc357610e34858351610e87565b610e3d82610f01565b602095909501949150600101610e21565b610e5781610f07565b82525050565b80516040830190610e6e8482610e87565b506020820151610e816020850182610e87565b50505050565b610e5781610eec565b6104008101610e9f8284610d81565b92915050565b60408101610e9f8284610dca565b6104008101610e9f8284610e0c565b60208101610e9f8284610e4e565b60408101610e9f8284610e5d565b60208101610e9f8284610e87565b90565b50601090565b50600290565b50602090565b60200190565b1515905600a265627a7a72305820f626f6f6d4ff363dee00e353a4cfcc075debf98a42260132025a2d109ca9f39a6c6578706572696d656e74616cf50037",
  "source": "pragma solidity ^0.4.24;\r\npragma experimental ABIEncoderV2;\r\n\r\nimport \"./alt_bn128.sol\";\r\nimport \"./Conversion.sol\";\r\n\r\ncontract PublicParameters {\r\n\r\n    event VectorCreated(uint256 _i);\r\n\r\n    using alt_bn128 for uint256;\r\n    using alt_bn128 for alt_bn128.G1Point;\r\n    using Conversion for uint256;\r\n\r\n    uint256 public constant m = 16;\r\n    uint256 public constant n = 4;\r\n\r\n    uint256[2] public signatureGenerator;\r\n    uint256[2] public baseG;\r\n    uint256[2] public baseH;\r\n    uint256[m*2] public gVector;\r\n    uint256[m*2] public hVector;\r\n    \r\n    uint256 public lastGcreated = 0;\r\n    uint256 public lastHcreated = 0;\r\n\r\n    constructor() public {\r\n        signatureGenerator = signaturePublicGenerator();\r\n        baseG = peddersenBaseG();\r\n        baseH = peddersenBaseH();\r\n    }\r\n\r\n    function createGVector() public returns (bool success) {\r\n        require(lastGcreated < m);\r\n        uint256 maxToCreate = m - lastGcreated;\r\n        if (maxToCreate > n) {\r\n            maxToCreate = n;\r\n        }\r\n        uint256[2] memory reusablePoints;\r\n        for (uint256 i = lastGcreated; i < lastGcreated+maxToCreate; i++) {\r\n            reusablePoints = getGVectorComponent(i);\r\n            gVector[i*2] = reusablePoints[0];\r\n            gVector[i*2 + 1] = reusablePoints[1];\r\n        }\r\n        lastGcreated = lastGcreated+maxToCreate;\r\n        emit VectorCreated(lastGcreated);\r\n        return true;\r\n    }\r\n\r\n    function createHVector() public returns (bool success) {\r\n        require(lastHcreated < m);\r\n        uint256 maxToCreate = m - lastHcreated;\r\n        if (maxToCreate > n) {\r\n            maxToCreate = n;\r\n        }\r\n        uint256[2] memory reusablePoints;\r\n        for (uint256 i = lastHcreated; i < lastHcreated+maxToCreate; i++) {\r\n            reusablePoints = getHVectorComponent(i);\r\n            hVector[i*2] = reusablePoints[0];\r\n            hVector[i*2 + 1] = reusablePoints[1];\r\n        }\r\n        lastHcreated = lastHcreated+maxToCreate;\r\n        return true;\r\n    }\r\n\r\n    function signaturePublicGenerator() public pure returns (uint256[2] point) {\r\n        return [uint256(1), uint256(2)];\r\n    }\r\n\r\n    function peddersenBaseG() public view returns (uint256[2] point) {\r\n        bytes32 h = keccak256(\"G\");\r\n        alt_bn128.G1Point memory g1p = alt_bn128.uintToCurvePoint(uint256(h));\r\n        return [g1p.X, g1p.Y];\r\n    }\r\n    \r\n    function peddersenBaseH() public view returns (uint256[2] point) {\r\n        bytes32 h = keccak256(\"H\");\r\n        alt_bn128.G1Point memory g1p = alt_bn128.uintToCurvePoint(uint256(h));\r\n        return [g1p.X, g1p.Y];\r\n    }\r\n\r\n    function getGVectorComponent(uint256 index) public view returns (uint256[2] point) {\r\n        require(index < m);\r\n        bytes32 h = keccak256(\"G\", index.uintToBytes());\r\n        alt_bn128.G1Point memory g1p = alt_bn128.uintToCurvePoint(uint256(h));\r\n        return [g1p.X, g1p.Y];\r\n    }\r\n\r\n    function getHVectorComponent(uint256 index) public view returns (uint256[2] point) {\r\n        require(index < m);\r\n        bytes32 h = keccak256(\"H\", index.uintToBytes());\r\n        alt_bn128.G1Point memory g1p = alt_bn128.uintToCurvePoint(uint256(h));\r\n        return [g1p.X, g1p.Y];\r\n    }\r\n    \r\n    function getGVector() public view returns (uint256[2*m] points) {\r\n        return gVector;\r\n    }\r\n    \r\n    function getHVector() public view returns (uint256[2*m] points) {\r\n        return hVector;\r\n    }\r\n\r\n    function generator() public view returns (alt_bn128.G1Point memory p) {\r\n        return assemblePoint(signatureGenerator);\r\n    }\r\n\r\n    function G() public view returns (alt_bn128.G1Point memory p) {\r\n        return assemblePoint(baseG);\r\n    }\r\n\r\n    function H() public view returns (alt_bn128.G1Point memory p) {\r\n        return assemblePoint(baseH);\r\n    }\r\n\r\n    function gs() public view returns(alt_bn128.G1Point[m] memory points){\r\n        return assemblePointsFromEncodings(gVector);\r\n    }\r\n\r\n    function hs() public view returns(alt_bn128.G1Point[m] memory points){\r\n        return assemblePointsFromEncodings(hVector);\r\n    }\r\n\r\n    function assemblePointsFromEncodings(uint256[m*2] _pointsEncoding) internal pure returns(alt_bn128.G1Point[m] memory points) {\r\n        for (uint256 i = 0; i < m; i++) {\r\n            points[i] = alt_bn128.G1Point(_pointsEncoding[2*i], _pointsEncoding[2*i + 1]);\r\n        }\r\n        return points;\r\n    }\r\n\r\n    function assemblePoint(uint256[2] _encoding) internal pure returns(alt_bn128.G1Point memory point) {\r\n        return alt_bn128.G1Point(_encoding[0], _encoding[1]);\r\n    }\r\n}",
  "sourcePath": "C:\\Users\\dva\\Documents\\Development\\ELCA\\confidential-transactions-smart-contracts\\contracts\\PublicParameters.sol",
  "compiler": {
    "name": "solc",
    "version": "0.4.24+commit.e67f0147.Emscripten.clang"
  },
  "schemaVersion": "2.0.1",
  "updatedAt": "2018-07-16T15:52:16.315Z"
}